{
	"contracts/FundMe.sol": {
		"FundMe": {
			"abi": [
				{
					"inputs": [],
					"stateMutability": "nonpayable",
					"type": "constructor"
				},
				{
					"stateMutability": "payable",
					"type": "fallback"
				},
				{
					"inputs": [],
					"name": "MINIMUM_USD",
					"outputs": [
						{
							"internalType": "uint256",
							"name": "",
							"type": "uint256"
						}
					],
					"stateMutability": "view",
					"type": "function"
				},
				{
					"inputs": [
						{
							"internalType": "address",
							"name": "",
							"type": "address"
						}
					],
					"name": "addressToAmountFunded",
					"outputs": [
						{
							"internalType": "uint256",
							"name": "",
							"type": "uint256"
						}
					],
					"stateMutability": "view",
					"type": "function"
				},
				{
					"inputs": [],
					"name": "fund",
					"outputs": [],
					"stateMutability": "payable",
					"type": "function"
				},
				{
					"inputs": [
						{
							"internalType": "uint256",
							"name": "",
							"type": "uint256"
						}
					],
					"name": "funders",
					"outputs": [
						{
							"internalType": "address",
							"name": "",
							"type": "address"
						}
					],
					"stateMutability": "view",
					"type": "function"
				},
				{
					"inputs": [],
					"name": "i_owner",
					"outputs": [
						{
							"internalType": "address",
							"name": "",
							"type": "address"
						}
					],
					"stateMutability": "view",
					"type": "function"
				},
				{
					"inputs": [],
					"name": "withdraw",
					"outputs": [],
					"stateMutability": "nonpayable",
					"type": "function"
				},
				{
					"stateMutability": "payable",
					"type": "receive"
				}
			],
			"devdoc": {
				"kind": "dev",
				"methods": {},
				"version": 1
			},
			"evm": {
				"assembly": "    /* \"contracts/FundMe.sol\":343:2241  contract FundMe {... */\n  mstore(0x40, 0xa0)\n    /* \"contracts/FundMe.sol\":720:771  constructor() {... */\n  callvalue\n  dup1\n  iszero\n  tag_1\n  jumpi\n  0x00\n  dup1\n  revert\ntag_1:\n  pop\n    /* \"contracts/FundMe.sol\":754:764  msg.sender */\n  caller\n    /* \"contracts/FundMe.sol\":744:764  i_owner = msg.sender */\n  0xffffffffffffffffffffffffffffffffffffffff\n  and\n  0x80\n  dup2\n  0xffffffffffffffffffffffffffffffffffffffff\n  and\n  0x60\n  shl\n  dup2\n  mstore\n  pop\n  pop\n    /* \"contracts/FundMe.sol\":343:2241  contract FundMe {... */\n  shr(0x60, mload(0x80))\n  codecopy(0x00, dataOffset(sub_0), dataSize(sub_0))\n  0x00\n  assignImmutable(\"0x606503ebd6bdca7290248af82fd5a09ca0489398da9f242244210336ae6ece9f\")\n  return(0x00, dataSize(sub_0))\nstop\n\nsub_0: assembly {\n        /* \"contracts/FundMe.sol\":343:2241  contract FundMe {... */\n      mstore(0x40, 0x80)\n      jumpi(tag_1, lt(calldatasize, 0x04))\n      shr(0xe0, calldataload(0x00))\n      dup1\n      0x3ccfd60b\n      eq\n      tag_3\n      jumpi\n      dup1\n      0x3e47d6f3\n      eq\n      tag_4\n      jumpi\n      dup1\n      0x6b69a592\n      eq\n      tag_5\n      jumpi\n      dup1\n      0xb60d4288\n      eq\n      tag_6\n      jumpi\n      dup1\n      0xdba6335f\n      eq\n      tag_7\n      jumpi\n      dup1\n      0xdc0d3dff\n      eq\n      tag_8\n      jumpi\n      jump(tag_2)\n    tag_1:\n      jumpi(tag_2, calldatasize)\n        /* \"contracts/FundMe.sol\":2169:2175  fund() */\n      tag_11\n        /* \"contracts/FundMe.sol\":2169:2173  fund */\n      tag_12\n        /* \"contracts/FundMe.sol\":2169:2175  fund() */\n      jump\t// in\n    tag_11:\n        /* \"contracts/FundMe.sol\":343:2241  contract FundMe {... */\n      stop\n    tag_2:\n        /* \"contracts/FundMe.sol\":2226:2232  fund() */\n      tag_15\n        /* \"contracts/FundMe.sol\":2226:2230  fund */\n      tag_12\n        /* \"contracts/FundMe.sol\":2226:2232  fund() */\n      jump\t// in\n    tag_15:\n        /* \"contracts/FundMe.sol\":343:2241  contract FundMe {... */\n      stop\n        /* \"contracts/FundMe.sol\":1077:1926  function withdraw()... */\n    tag_3:\n      callvalue\n      dup1\n      iszero\n      tag_16\n      jumpi\n      0x00\n      dup1\n      revert\n    tag_16:\n      pop\n      tag_17\n      tag_18\n      jump\t// in\n    tag_17:\n      stop\n        /* \"contracts/FundMe.sol\":551:607  mapping(address => uint256) public addressToAmountFunded */\n    tag_4:\n      callvalue\n      dup1\n      iszero\n      tag_19\n      jumpi\n      0x00\n      dup1\n      revert\n    tag_19:\n      pop\n      tag_20\n      0x04\n      dup1\n      calldatasize\n      sub\n      dup2\n      add\n      swap1\n      tag_21\n      swap2\n      swap1\n      tag_22\n      jump\t// in\n    tag_21:\n      tag_23\n      jump\t// in\n    tag_20:\n      mload(0x40)\n      tag_24\n      swap2\n      swap1\n      tag_25\n      jump\t// in\n    tag_24:\n      mload(0x40)\n      dup1\n      swap2\n      sub\n      swap1\n      return\n        /* \"contracts/FundMe.sol\":404:451  uint256 public constant MINIMUM_USD = 50 * 1e18 */\n    tag_5:\n      callvalue\n      dup1\n      iszero\n      tag_26\n      jumpi\n      0x00\n      dup1\n      revert\n    tag_26:\n      pop\n      tag_27\n      tag_28\n      jump\t// in\n    tag_27:\n      mload(0x40)\n      tag_29\n      swap2\n      swap1\n      tag_25\n      jump\t// in\n    tag_29:\n      mload(0x40)\n      dup1\n      swap2\n      sub\n      swap1\n      return\n        /* \"contracts/FundMe.sol\":777:1071  function fund() public payable {... */\n    tag_6:\n      tag_30\n      tag_12\n      jump\t// in\n    tag_30:\n      stop\n        /* \"contracts/FundMe.sol\":614:646  address public immutable i_owner */\n    tag_7:\n      callvalue\n      dup1\n      iszero\n      tag_31\n      jumpi\n      0x00\n      dup1\n      revert\n    tag_31:\n      pop\n      tag_32\n      tag_33\n      jump\t// in\n    tag_32:\n      mload(0x40)\n      tag_34\n      swap2\n      swap1\n      tag_35\n      jump\t// in\n    tag_34:\n      mload(0x40)\n      dup1\n      swap2\n      sub\n      swap1\n      return\n        /* \"contracts/FundMe.sol\":521:545  address[] public funders */\n    tag_8:\n      callvalue\n      dup1\n      iszero\n      tag_36\n      jumpi\n      0x00\n      dup1\n      revert\n    tag_36:\n      pop\n      tag_37\n      0x04\n      dup1\n      calldatasize\n      sub\n      dup2\n      add\n      swap1\n      tag_38\n      swap2\n      swap1\n      tag_39\n      jump\t// in\n    tag_38:\n      tag_40\n      jump\t// in\n    tag_37:\n      mload(0x40)\n      tag_41\n      swap2\n      swap1\n      tag_35\n      jump\t// in\n    tag_41:\n      mload(0x40)\n      dup1\n      swap2\n      sub\n      swap1\n      return\n        /* \"contracts/FundMe.sol\":777:1071  function fund() public payable {... */\n    tag_12:\n        /* \"contracts/FundMe.sol\":442:451  50 * 1e18 */\n      0x02b5e3af16b1880000\n        /* \"contracts/FundMe.sol\":839:868  msg.value.getConversionRate() */\n      tag_43\n        /* \"contracts/FundMe.sol\":839:848  msg.value */\n      callvalue\n        /* \"contracts/FundMe.sol\":839:866  msg.value.getConversionRate */\n      tag_44\n        /* \"contracts/FundMe.sol\":839:868  msg.value.getConversionRate() */\n      jump\t// in\n    tag_43:\n        /* \"contracts/FundMe.sol\":839:883  msg.value.getConversionRate() >= MINIMUM_USD */\n      lt\n      iszero\n        /* \"contracts/FundMe.sol\":818:928  require(... */\n      tag_45\n      jumpi\n      mload(0x40)\n      0x08c379a000000000000000000000000000000000000000000000000000000000\n      dup2\n      mstore\n      0x04\n      add\n      tag_46\n      swap1\n      tag_47\n      jump\t// in\n    tag_46:\n      mload(0x40)\n      dup1\n      swap2\n      sub\n      swap1\n      revert\n    tag_45:\n        /* \"contracts/FundMe.sol\":984:991  funders */\n      0x00\n        /* \"contracts/FundMe.sol\":997:1007  msg.sender */\n      caller\n        /* \"contracts/FundMe.sol\":984:1008  funders.push(msg.sender) */\n      swap1\n      dup1\n      0x01\n      dup2\n      sload\n      add\n      dup1\n      dup3\n      sstore\n      dup1\n      swap2\n      pop\n      pop\n      0x01\n      swap1\n      sub\n      swap1\n      0x00\n      mstore\n      keccak256(0x00, 0x20)\n      add\n      0x00\n      swap1\n      swap2\n      swap1\n      swap2\n      swap1\n      swap2\n      0x0100\n      exp\n      dup2\n      sload\n      dup2\n      0xffffffffffffffffffffffffffffffffffffffff\n      mul\n      not\n      and\n      swap1\n      dup4\n      0xffffffffffffffffffffffffffffffffffffffff\n      and\n      mul\n      or\n      swap1\n      sstore\n      pop\n        /* \"contracts/FundMe.sol\":1055:1064  msg.value */\n      callvalue\n        /* \"contracts/FundMe.sol\":1018:1039  addressToAmountFunded */\n      0x01\n        /* \"contracts/FundMe.sol\":1018:1051  addressToAmountFunded[msg.sender] */\n      0x00\n        /* \"contracts/FundMe.sol\":1040:1050  msg.sender */\n      caller\n        /* \"contracts/FundMe.sol\":1018:1051  addressToAmountFunded[msg.sender] */\n      0xffffffffffffffffffffffffffffffffffffffff\n      and\n      0xffffffffffffffffffffffffffffffffffffffff\n      and\n      dup2\n      mstore\n      0x20\n      add\n      swap1\n      dup2\n      mstore\n      0x20\n      add\n      0x00\n      keccak256\n      0x00\n        /* \"contracts/FundMe.sol\":1018:1064  addressToAmountFunded[msg.sender] += msg.value */\n      dup3\n      dup3\n      sload\n      tag_49\n      swap2\n      swap1\n      tag_50\n      jump\t// in\n    tag_49:\n      swap3\n      pop\n      pop\n      dup2\n      swap1\n      sstore\n      pop\n        /* \"contracts/FundMe.sol\":777:1071  function fund() public payable {... */\n      jump\t// out\n        /* \"contracts/FundMe.sol\":1077:1926  function withdraw()... */\n    tag_18:\n        /* \"contracts/FundMe.sol\":1985:1992  i_owner */\n      immutable(\"0x606503ebd6bdca7290248af82fd5a09ca0489398da9f242244210336ae6ece9f\")\n        /* \"contracts/FundMe.sol\":1971:1992  msg.sender == i_owner */\n      0xffffffffffffffffffffffffffffffffffffffff\n      and\n        /* \"contracts/FundMe.sol\":1971:1981  msg.sender */\n      caller\n        /* \"contracts/FundMe.sol\":1971:1992  msg.sender == i_owner */\n      0xffffffffffffffffffffffffffffffffffffffff\n      and\n      eq\n        /* \"contracts/FundMe.sol\":1963:2017  require(msg.sender == i_owner, \"Sender is not owner!\") */\n      tag_52\n      jumpi\n      mload(0x40)\n      0x08c379a000000000000000000000000000000000000000000000000000000000\n      dup2\n      mstore\n      0x04\n      add\n      tag_53\n      swap1\n      tag_54\n      jump\t// in\n    tag_53:\n      mload(0x40)\n      dup1\n      swap2\n      sub\n      swap1\n      revert\n    tag_52:\n        /* \"contracts/FundMe.sol\":1429:1448  uint256 funderIndex */\n      0x00\n        /* \"contracts/FundMe.sol\":1411:1641  for (... */\n    tag_56:\n        /* \"contracts/FundMe.sol\":1480:1487  funders */\n      0x00\n        /* \"contracts/FundMe.sol\":1480:1494  funders.length */\n      dup1\n      sload\n      swap1\n      pop\n        /* \"contracts/FundMe.sol\":1466:1477  funderIndex */\n      dup2\n        /* \"contracts/FundMe.sol\":1466:1494  funderIndex < funders.length */\n      lt\n        /* \"contracts/FundMe.sol\":1411:1641  for (... */\n      iszero\n      tag_57\n      jumpi\n        /* \"contracts/FundMe.sol\":1546:1560  address funder */\n      0x00\n        /* \"contracts/FundMe.sol\":1563:1570  funders */\n      dup1\n        /* \"contracts/FundMe.sol\":1571:1582  funderIndex */\n      dup3\n        /* \"contracts/FundMe.sol\":1563:1583  funders[funderIndex] */\n      dup2\n      sload\n      dup2\n      lt\n      tag_59\n      jumpi\n      tag_60\n      tag_61\n      jump\t// in\n    tag_60:\n    tag_59:\n      swap1\n      0x00\n      mstore\n      keccak256(0x00, 0x20)\n      add\n      0x00\n      swap1\n      sload\n      swap1\n      0x0100\n      exp\n      swap1\n      div\n      0xffffffffffffffffffffffffffffffffffffffff\n      and\n        /* \"contracts/FundMe.sol\":1546:1583  address funder = funders[funderIndex] */\n      swap1\n      pop\n        /* \"contracts/FundMe.sol\":1629:1630  0 */\n      0x00\n        /* \"contracts/FundMe.sol\":1597:1618  addressToAmountFunded */\n      0x01\n        /* \"contracts/FundMe.sol\":1597:1626  addressToAmountFunded[funder] */\n      0x00\n        /* \"contracts/FundMe.sol\":1619:1625  funder */\n      dup4\n        /* \"contracts/FundMe.sol\":1597:1626  addressToAmountFunded[funder] */\n      0xffffffffffffffffffffffffffffffffffffffff\n      and\n      0xffffffffffffffffffffffffffffffffffffffff\n      and\n      dup2\n      mstore\n      0x20\n      add\n      swap1\n      dup2\n      mstore\n      0x20\n      add\n      0x00\n      keccak256\n        /* \"contracts/FundMe.sol\":1597:1630  addressToAmountFunded[funder] = 0 */\n      dup2\n      swap1\n      sstore\n      pop\n        /* \"contracts/FundMe.sol\":1532:1641  {... */\n      pop\n        /* \"contracts/FundMe.sol\":1508:1521  funderIndex++ */\n      dup1\n      dup1\n      tag_63\n      swap1\n      tag_64\n      jump\t// in\n    tag_63:\n      swap2\n      pop\n      pop\n        /* \"contracts/FundMe.sol\":1411:1641  for (... */\n      jump(tag_56)\n    tag_57:\n      pop\n        /* \"contracts/FundMe.sol\":1701:1702  0 */\n      0x00\n        /* \"contracts/FundMe.sol\":1687:1703  new address[](0) */\n      0xffffffffffffffff\n      dup2\n      gt\n      iszero\n      tag_65\n      jumpi\n      tag_66\n      tag_67\n      jump\t// in\n    tag_66:\n    tag_65:\n      mload(0x40)\n      swap1\n      dup1\n      dup3\n      mstore\n      dup1\n      0x20\n      mul\n      0x20\n      add\n      dup3\n      add\n      0x40\n      mstore\n      dup1\n      iszero\n      tag_68\n      jumpi\n      dup2\n      0x20\n      add\n      0x20\n      dup3\n      mul\n      dup1\n      calldatasize\n      dup4\n      calldatacopy\n      dup1\n      dup3\n      add\n      swap2\n      pop\n      pop\n      swap1\n      pop\n    tag_68:\n      pop\n        /* \"contracts/FundMe.sol\":1677:1684  funders */\n      0x00\n        /* \"contracts/FundMe.sol\":1677:1703  funders = new address[](0) */\n      swap1\n      dup1\n      mload\n      swap1\n      0x20\n      add\n      swap1\n      tag_69\n      swap3\n      swap2\n      swap1\n      tag_70\n      jump\t// in\n    tag_69:\n      pop\n        /* \"contracts/FundMe.sol\":1771:1787  bool callSuccess */\n      0x00\n        /* \"contracts/FundMe.sol\":1801:1811  msg.sender */\n      caller\n        /* \"contracts/FundMe.sol\":1793:1817  payable(msg.sender).call */\n      0xffffffffffffffffffffffffffffffffffffffff\n      and\n        /* \"contracts/FundMe.sol\":1838:1859  address(this).balance */\n      selfbalance\n        /* \"contracts/FundMe.sol\":1793:1873  payable(msg.sender).call{... */\n      mload(0x40)\n      tag_71\n      swap1\n      tag_72\n      jump\t// in\n    tag_71:\n      0x00\n      mload(0x40)\n      dup1\n      dup4\n      sub\n      dup2\n      dup6\n      dup8\n      gas\n      call\n      swap3\n      pop\n      pop\n      pop\n      returndatasize\n      dup1\n      0x00\n      dup2\n      eq\n      tag_75\n      jumpi\n      mload(0x40)\n      swap2\n      pop\n      and(add(returndatasize, 0x3f), not(0x1f))\n      dup3\n      add\n      0x40\n      mstore\n      returndatasize\n      dup3\n      mstore\n      returndatasize\n      0x00\n      0x20\n      dup5\n      add\n      returndatacopy\n      jump(tag_74)\n    tag_75:\n      0x60\n      swap2\n      pop\n    tag_74:\n      pop\n        /* \"contracts/FundMe.sol\":1770:1873  (bool callSuccess, ) = payable(msg.sender).call{... */\n      pop\n      swap1\n      pop\n        /* \"contracts/FundMe.sol\":1891:1902  callSuccess */\n      dup1\n        /* \"contracts/FundMe.sol\":1883:1918  require(callSuccess, \"Call failed\") */\n      tag_76\n      jumpi\n      mload(0x40)\n      0x08c379a000000000000000000000000000000000000000000000000000000000\n      dup2\n      mstore\n      0x04\n      add\n      tag_77\n      swap1\n      tag_78\n      jump\t// in\n    tag_77:\n      mload(0x40)\n      dup1\n      swap2\n      sub\n      swap1\n      revert\n    tag_76:\n        /* \"contracts/FundMe.sol\":1345:1926  {... */\n      pop\n        /* \"contracts/FundMe.sol\":1077:1926  function withdraw()... */\n      jump\t// out\n        /* \"contracts/FundMe.sol\":551:607  mapping(address => uint256) public addressToAmountFunded */\n    tag_23:\n      mstore(0x20, 0x01)\n      dup1\n      0x00\n      mstore\n      keccak256(0x00, 0x40)\n      0x00\n      swap2\n      pop\n      swap1\n      pop\n      sload\n      dup2\n      jump\t// out\n        /* \"contracts/FundMe.sol\":404:451  uint256 public constant MINIMUM_USD = 50 * 1e18 */\n    tag_28:\n        /* \"contracts/FundMe.sol\":442:451  50 * 1e18 */\n      0x02b5e3af16b1880000\n        /* \"contracts/FundMe.sol\":404:451  uint256 public constant MINIMUM_USD = 50 * 1e18 */\n      dup2\n      jump\t// out\n        /* \"contracts/FundMe.sol\":614:646  address public immutable i_owner */\n    tag_33:\n      immutable(\"0x606503ebd6bdca7290248af82fd5a09ca0489398da9f242244210336ae6ece9f\")\n      dup2\n      jump\t// out\n        /* \"contracts/FundMe.sol\":521:545  address[] public funders */\n    tag_40:\n      0x00\n      dup2\n      dup2\n      sload\n      dup2\n      lt\n      tag_79\n      jumpi\n      0x00\n      dup1\n      revert\n    tag_79:\n      swap1\n      0x00\n      mstore\n      keccak256(0x00, 0x20)\n      add\n      0x00\n      swap2\n      pop\n      sload\n      swap1\n      0x0100\n      exp\n      swap1\n      div\n      0xffffffffffffffffffffffffffffffffffffffff\n      and\n      dup2\n      jump\t// out\n        /* \"contracts/PriceConverter.sol\":832:1054  function getConversionRate(uint256 ethAmount) internal view returns(uint256) {\r... */\n    tag_44:\n        /* \"contracts/PriceConverter.sol\":900:907  uint256 */\n      0x00\n        /* \"contracts/PriceConverter.sol\":920:936  uint256 ethPrice */\n      dup1\n        /* \"contracts/PriceConverter.sol\":939:949  getPrice() */\n      tag_82\n        /* \"contracts/PriceConverter.sol\":939:947  getPrice */\n      tag_83\n        /* \"contracts/PriceConverter.sol\":939:949  getPrice() */\n      jump\t// in\n    tag_82:\n        /* \"contracts/PriceConverter.sol\":920:949  uint256 ethPrice = getPrice() */\n      swap1\n      pop\n        /* \"contracts/PriceConverter.sol\":960:982  uint256 ethAmountInUsd */\n      0x00\n        /* \"contracts/PriceConverter.sol\":1010:1014  1e18 */\n      0x0de0b6b3a7640000\n        /* \"contracts/PriceConverter.sol\":997:1006  ethAmount */\n      dup5\n        /* \"contracts/PriceConverter.sol\":986:994  ethPrice */\n      dup4\n        /* \"contracts/PriceConverter.sol\":986:1006  ethPrice * ethAmount */\n      tag_84\n      swap2\n      swap1\n      tag_85\n      jump\t// in\n    tag_84:\n        /* \"contracts/PriceConverter.sol\":985:1014  (ethPrice * ethAmount) / 1e18 */\n      tag_86\n      swap2\n      swap1\n      tag_87\n      jump\t// in\n    tag_86:\n        /* \"contracts/PriceConverter.sol\":960:1014  uint256 ethAmountInUsd = (ethPrice * ethAmount) / 1e18 */\n      swap1\n      pop\n        /* \"contracts/PriceConverter.sol\":1032:1046  ethAmountInUsd */\n      dup1\n        /* \"contracts/PriceConverter.sol\":1025:1046  return ethAmountInUsd */\n      swap3\n      pop\n      pop\n      pop\n        /* \"contracts/PriceConverter.sol\":832:1054  function getConversionRate(uint256 ethAmount) internal view returns(uint256) {\r... */\n      swap2\n      swap1\n      pop\n      jump\t// out\n        /* \"contracts/PriceConverter.sol\":180:607  function getPrice() internal view returns(uint256) {\r... */\n    tag_83:\n        /* \"contracts/PriceConverter.sol\":222:229  uint256 */\n      0x00\n        /* \"contracts/PriceConverter.sol\":322:353  AggregatorV3Interface priceFeed */\n      dup1\n        /* \"contracts/PriceConverter.sol\":378:420  0xD4a33860578De61DBAbDc8BFdb98FD742fA7028e */\n      0xd4a33860578de61dbabdc8bfdb98fd742fa7028e\n        /* \"contracts/PriceConverter.sol\":322:421  AggregatorV3Interface priceFeed = AggregatorV3Interface(0xD4a33860578De61DBAbDc8BFdb98FD742fA7028e) */\n      swap1\n      pop\n        /* \"contracts/PriceConverter.sol\":435:444  int price */\n      0x00\n        /* \"contracts/PriceConverter.sol\":451:460  priceFeed */\n      dup2\n        /* \"contracts/PriceConverter.sol\":451:476  priceFeed.latestRoundData */\n      0xffffffffffffffffffffffffffffffffffffffff\n      and\n      0xfeaf968c\n        /* \"contracts/PriceConverter.sol\":451:478  priceFeed.latestRoundData() */\n      mload(0x40)\n      dup2\n      0xffffffff\n      and\n      0xe0\n      shl\n      dup2\n      mstore\n      0x04\n      add\n      0xa0\n      mload(0x40)\n      dup1\n      dup4\n      sub\n      dup2\n      dup7\n      dup1\n      extcodesize\n      iszero\n      dup1\n      iszero\n      tag_89\n      jumpi\n      0x00\n      dup1\n      revert\n    tag_89:\n      pop\n      gas\n      staticcall\n      iszero\n      dup1\n      iszero\n      tag_91\n      jumpi\n      returndatasize\n      0x00\n      dup1\n      returndatacopy\n      revert(0x00, returndatasize)\n    tag_91:\n      pop\n      pop\n      pop\n      pop\n      mload(0x40)\n      returndatasize\n      not(0x1f)\n      0x1f\n      dup3\n      add\n      and\n      dup3\n      add\n      dup1\n      0x40\n      mstore\n      pop\n      dup2\n      add\n      swap1\n      tag_92\n      swap2\n      swap1\n      tag_93\n      jump\t// in\n    tag_92:\n        /* \"contracts/PriceConverter.sol\":432:478  (, int price,,,) = priceFeed.latestRoundData() */\n      pop\n      pop\n      pop\n      swap2\n      pop\n      pop\n        /* \"contracts/PriceConverter.sol\":570:574  1e10 */\n      0x02540be400\n        /* \"contracts/PriceConverter.sol\":562:567  price */\n      dup2\n        /* \"contracts/PriceConverter.sol\":562:574  price * 1e10 */\n      tag_94\n      swap2\n      swap1\n      tag_95\n      jump\t// in\n    tag_94:\n        /* \"contracts/PriceConverter.sol\":547:575  return uint256(price * 1e10) */\n      swap3\n      pop\n      pop\n      pop\n        /* \"contracts/PriceConverter.sol\":180:607  function getPrice() internal view returns(uint256) {\r... */\n      swap1\n      jump\t// out\n    tag_70:\n      dup3\n      dup1\n      sload\n      dup3\n      dup3\n      sstore\n      swap1\n      0x00\n      mstore\n      keccak256(0x00, 0x20)\n      swap1\n      dup2\n      add\n      swap3\n      dup3\n      iszero\n      tag_96\n      jumpi\n      swap2\n      0x20\n      mul\n      dup3\n      add\n    tag_97:\n      dup3\n      dup2\n      gt\n      iszero\n      tag_98\n      jumpi\n      dup3\n      mload\n      dup3\n      exp(0x0100, 0x00)\n      dup2\n      sload\n      dup2\n      0xffffffffffffffffffffffffffffffffffffffff\n      mul\n      not\n      and\n      swap1\n      dup4\n      0xffffffffffffffffffffffffffffffffffffffff\n      and\n      mul\n      or\n      swap1\n      sstore\n      pop\n      swap2\n      0x20\n      add\n      swap2\n      swap1\n      0x01\n      add\n      swap1\n      jump(tag_97)\n    tag_98:\n    tag_96:\n      pop\n      swap1\n      pop\n      tag_99\n      swap2\n      swap1\n      tag_100\n      jump\t// in\n    tag_99:\n      pop\n      swap1\n      jump\t// out\n    tag_100:\n    tag_101:\n      dup1\n      dup3\n      gt\n      iszero\n      tag_102\n      jumpi\n      0x00\n      dup2\n      0x00\n      swap1\n      sstore\n      pop\n      0x01\n      add\n      jump(tag_101)\n    tag_102:\n      pop\n      swap1\n      jump\t// out\n        /* \"#utility.yul\":7:146   */\n    tag_104:\n        /* \"#utility.yul\":53:58   */\n      0x00\n        /* \"#utility.yul\":91:97   */\n      dup2\n        /* \"#utility.yul\":78:98   */\n      calldataload\n        /* \"#utility.yul\":69:98   */\n      swap1\n      pop\n        /* \"#utility.yul\":107:140   */\n      tag_106\n        /* \"#utility.yul\":134:139   */\n      dup2\n        /* \"#utility.yul\":107:140   */\n      tag_107\n      jump\t// in\n    tag_106:\n        /* \"#utility.yul\":7:146   */\n      swap3\n      swap2\n      pop\n      pop\n      jump\t// out\n        /* \"#utility.yul\":152:293   */\n    tag_108:\n        /* \"#utility.yul\":208:213   */\n      0x00\n        /* \"#utility.yul\":239:245   */\n      dup2\n        /* \"#utility.yul\":233:246   */\n      mload\n        /* \"#utility.yul\":224:246   */\n      swap1\n      pop\n        /* \"#utility.yul\":255:287   */\n      tag_110\n        /* \"#utility.yul\":281:286   */\n      dup2\n        /* \"#utility.yul\":255:287   */\n      tag_111\n      jump\t// in\n    tag_110:\n        /* \"#utility.yul\":152:293   */\n      swap3\n      swap2\n      pop\n      pop\n      jump\t// out\n        /* \"#utility.yul\":299:438   */\n    tag_112:\n        /* \"#utility.yul\":345:350   */\n      0x00\n        /* \"#utility.yul\":383:389   */\n      dup2\n        /* \"#utility.yul\":370:390   */\n      calldataload\n        /* \"#utility.yul\":361:390   */\n      swap1\n      pop\n        /* \"#utility.yul\":399:432   */\n      tag_114\n        /* \"#utility.yul\":426:431   */\n      dup2\n        /* \"#utility.yul\":399:432   */\n      tag_115\n      jump\t// in\n    tag_114:\n        /* \"#utility.yul\":299:438   */\n      swap3\n      swap2\n      pop\n      pop\n      jump\t// out\n        /* \"#utility.yul\":444:587   */\n    tag_116:\n        /* \"#utility.yul\":501:506   */\n      0x00\n        /* \"#utility.yul\":532:538   */\n      dup2\n        /* \"#utility.yul\":526:539   */\n      mload\n        /* \"#utility.yul\":517:539   */\n      swap1\n      pop\n        /* \"#utility.yul\":548:581   */\n      tag_118\n        /* \"#utility.yul\":575:580   */\n      dup2\n        /* \"#utility.yul\":548:581   */\n      tag_115\n      jump\t// in\n    tag_118:\n        /* \"#utility.yul\":444:587   */\n      swap3\n      swap2\n      pop\n      pop\n      jump\t// out\n        /* \"#utility.yul\":593:734   */\n    tag_119:\n        /* \"#utility.yul\":649:654   */\n      0x00\n        /* \"#utility.yul\":680:686   */\n      dup2\n        /* \"#utility.yul\":674:687   */\n      mload\n        /* \"#utility.yul\":665:687   */\n      swap1\n      pop\n        /* \"#utility.yul\":696:728   */\n      tag_121\n        /* \"#utility.yul\":722:727   */\n      dup2\n        /* \"#utility.yul\":696:728   */\n      tag_122\n      jump\t// in\n    tag_121:\n        /* \"#utility.yul\":593:734   */\n      swap3\n      swap2\n      pop\n      pop\n      jump\t// out\n        /* \"#utility.yul\":740:1069   */\n    tag_22:\n        /* \"#utility.yul\":799:805   */\n      0x00\n        /* \"#utility.yul\":848:850   */\n      0x20\n        /* \"#utility.yul\":836:845   */\n      dup3\n        /* \"#utility.yul\":827:834   */\n      dup5\n        /* \"#utility.yul\":823:846   */\n      sub\n        /* \"#utility.yul\":819:851   */\n      slt\n        /* \"#utility.yul\":816:935   */\n      iszero\n      tag_124\n      jumpi\n        /* \"#utility.yul\":854:933   */\n      tag_125\n      tag_126\n      jump\t// in\n    tag_125:\n        /* \"#utility.yul\":816:935   */\n    tag_124:\n        /* \"#utility.yul\":974:975   */\n      0x00\n        /* \"#utility.yul\":999:1052   */\n      tag_127\n        /* \"#utility.yul\":1044:1051   */\n      dup5\n        /* \"#utility.yul\":1035:1041   */\n      dup3\n        /* \"#utility.yul\":1024:1033   */\n      dup6\n        /* \"#utility.yul\":1020:1042   */\n      add\n        /* \"#utility.yul\":999:1052   */\n      tag_104\n      jump\t// in\n    tag_127:\n        /* \"#utility.yul\":989:1052   */\n      swap2\n      pop\n        /* \"#utility.yul\":945:1062   */\n      pop\n        /* \"#utility.yul\":740:1069   */\n      swap3\n      swap2\n      pop\n      pop\n      jump\t// out\n        /* \"#utility.yul\":1075:1404   */\n    tag_39:\n        /* \"#utility.yul\":1134:1140   */\n      0x00\n        /* \"#utility.yul\":1183:1185   */\n      0x20\n        /* \"#utility.yul\":1171:1180   */\n      dup3\n        /* \"#utility.yul\":1162:1169   */\n      dup5\n        /* \"#utility.yul\":1158:1181   */\n      sub\n        /* \"#utility.yul\":1154:1186   */\n      slt\n        /* \"#utility.yul\":1151:1270   */\n      iszero\n      tag_129\n      jumpi\n        /* \"#utility.yul\":1189:1268   */\n      tag_130\n      tag_126\n      jump\t// in\n    tag_130:\n        /* \"#utility.yul\":1151:1270   */\n    tag_129:\n        /* \"#utility.yul\":1309:1310   */\n      0x00\n        /* \"#utility.yul\":1334:1387   */\n      tag_131\n        /* \"#utility.yul\":1379:1386   */\n      dup5\n        /* \"#utility.yul\":1370:1376   */\n      dup3\n        /* \"#utility.yul\":1359:1368   */\n      dup6\n        /* \"#utility.yul\":1355:1377   */\n      add\n        /* \"#utility.yul\":1334:1387   */\n      tag_112\n      jump\t// in\n    tag_131:\n        /* \"#utility.yul\":1324:1387   */\n      swap2\n      pop\n        /* \"#utility.yul\":1280:1397   */\n      pop\n        /* \"#utility.yul\":1075:1404   */\n      swap3\n      swap2\n      pop\n      pop\n      jump\t// out\n        /* \"#utility.yul\":1410:2381   */\n    tag_93:\n        /* \"#utility.yul\":1513:1519   */\n      0x00\n        /* \"#utility.yul\":1521:1527   */\n      dup1\n        /* \"#utility.yul\":1529:1535   */\n      0x00\n        /* \"#utility.yul\":1537:1543   */\n      dup1\n        /* \"#utility.yul\":1545:1551   */\n      0x00\n        /* \"#utility.yul\":1594:1597   */\n      0xa0\n        /* \"#utility.yul\":1582:1591   */\n      dup7\n        /* \"#utility.yul\":1573:1580   */\n      dup9\n        /* \"#utility.yul\":1569:1592   */\n      sub\n        /* \"#utility.yul\":1565:1598   */\n      slt\n        /* \"#utility.yul\":1562:1682   */\n      iszero\n      tag_133\n      jumpi\n        /* \"#utility.yul\":1601:1680   */\n      tag_134\n      tag_126\n      jump\t// in\n    tag_134:\n        /* \"#utility.yul\":1562:1682   */\n    tag_133:\n        /* \"#utility.yul\":1721:1722   */\n      0x00\n        /* \"#utility.yul\":1746:1809   */\n      tag_135\n        /* \"#utility.yul\":1801:1808   */\n      dup9\n        /* \"#utility.yul\":1792:1798   */\n      dup3\n        /* \"#utility.yul\":1781:1790   */\n      dup10\n        /* \"#utility.yul\":1777:1799   */\n      add\n        /* \"#utility.yul\":1746:1809   */\n      tag_119\n      jump\t// in\n    tag_135:\n        /* \"#utility.yul\":1736:1809   */\n      swap6\n      pop\n        /* \"#utility.yul\":1692:1819   */\n      pop\n        /* \"#utility.yul\":1858:1860   */\n      0x20\n        /* \"#utility.yul\":1884:1947   */\n      tag_136\n        /* \"#utility.yul\":1939:1946   */\n      dup9\n        /* \"#utility.yul\":1930:1936   */\n      dup3\n        /* \"#utility.yul\":1919:1928   */\n      dup10\n        /* \"#utility.yul\":1915:1937   */\n      add\n        /* \"#utility.yul\":1884:1947   */\n      tag_108\n      jump\t// in\n    tag_136:\n        /* \"#utility.yul\":1874:1947   */\n      swap5\n      pop\n        /* \"#utility.yul\":1829:1957   */\n      pop\n        /* \"#utility.yul\":1996:1998   */\n      0x40\n        /* \"#utility.yul\":2022:2086   */\n      tag_137\n        /* \"#utility.yul\":2078:2085   */\n      dup9\n        /* \"#utility.yul\":2069:2075   */\n      dup3\n        /* \"#utility.yul\":2058:2067   */\n      dup10\n        /* \"#utility.yul\":2054:2076   */\n      add\n        /* \"#utility.yul\":2022:2086   */\n      tag_116\n      jump\t// in\n    tag_137:\n        /* \"#utility.yul\":2012:2086   */\n      swap4\n      pop\n        /* \"#utility.yul\":1967:2096   */\n      pop\n        /* \"#utility.yul\":2135:2137   */\n      0x60\n        /* \"#utility.yul\":2161:2225   */\n      tag_138\n        /* \"#utility.yul\":2217:2224   */\n      dup9\n        /* \"#utility.yul\":2208:2214   */\n      dup3\n        /* \"#utility.yul\":2197:2206   */\n      dup10\n        /* \"#utility.yul\":2193:2215   */\n      add\n        /* \"#utility.yul\":2161:2225   */\n      tag_116\n      jump\t// in\n    tag_138:\n        /* \"#utility.yul\":2151:2225   */\n      swap3\n      pop\n        /* \"#utility.yul\":2106:2235   */\n      pop\n        /* \"#utility.yul\":2274:2277   */\n      0x80\n        /* \"#utility.yul\":2301:2364   */\n      tag_139\n        /* \"#utility.yul\":2356:2363   */\n      dup9\n        /* \"#utility.yul\":2347:2353   */\n      dup3\n        /* \"#utility.yul\":2336:2345   */\n      dup10\n        /* \"#utility.yul\":2332:2354   */\n      add\n        /* \"#utility.yul\":2301:2364   */\n      tag_119\n      jump\t// in\n    tag_139:\n        /* \"#utility.yul\":2291:2364   */\n      swap2\n      pop\n        /* \"#utility.yul\":2245:2374   */\n      pop\n        /* \"#utility.yul\":1410:2381   */\n      swap3\n      swap6\n      pop\n      swap3\n      swap6\n      swap1\n      swap4\n      pop\n      jump\t// out\n        /* \"#utility.yul\":2387:2505   */\n    tag_140:\n        /* \"#utility.yul\":2474:2498   */\n      tag_142\n        /* \"#utility.yul\":2492:2497   */\n      dup2\n        /* \"#utility.yul\":2474:2498   */\n      tag_143\n      jump\t// in\n    tag_142:\n        /* \"#utility.yul\":2469:2472   */\n      dup3\n        /* \"#utility.yul\":2462:2499   */\n      mstore\n        /* \"#utility.yul\":2387:2505   */\n      pop\n      pop\n      jump\t// out\n        /* \"#utility.yul\":2511:2877   */\n    tag_144:\n        /* \"#utility.yul\":2653:2656   */\n      0x00\n        /* \"#utility.yul\":2674:2741   */\n      tag_146\n        /* \"#utility.yul\":2738:2740   */\n      0x0b\n        /* \"#utility.yul\":2733:2736   */\n      dup4\n        /* \"#utility.yul\":2674:2741   */\n      tag_147\n      jump\t// in\n    tag_146:\n        /* \"#utility.yul\":2667:2741   */\n      swap2\n      pop\n        /* \"#utility.yul\":2750:2843   */\n      tag_148\n        /* \"#utility.yul\":2839:2842   */\n      dup3\n        /* \"#utility.yul\":2750:2843   */\n      tag_149\n      jump\t// in\n    tag_148:\n        /* \"#utility.yul\":2868:2870   */\n      0x20\n        /* \"#utility.yul\":2863:2866   */\n      dup3\n        /* \"#utility.yul\":2859:2871   */\n      add\n        /* \"#utility.yul\":2852:2871   */\n      swap1\n      pop\n        /* \"#utility.yul\":2511:2877   */\n      swap2\n      swap1\n      pop\n      jump\t// out\n        /* \"#utility.yul\":2883:3281   */\n    tag_150:\n        /* \"#utility.yul\":3042:3045   */\n      0x00\n        /* \"#utility.yul\":3063:3146   */\n      tag_152\n        /* \"#utility.yul\":3144:3145   */\n      0x00\n        /* \"#utility.yul\":3139:3142   */\n      dup4\n        /* \"#utility.yul\":3063:3146   */\n      tag_153\n      jump\t// in\n    tag_152:\n        /* \"#utility.yul\":3056:3146   */\n      swap2\n      pop\n        /* \"#utility.yul\":3155:3248   */\n      tag_154\n        /* \"#utility.yul\":3244:3247   */\n      dup3\n        /* \"#utility.yul\":3155:3248   */\n      tag_155\n      jump\t// in\n    tag_154:\n        /* \"#utility.yul\":3273:3274   */\n      0x00\n        /* \"#utility.yul\":3268:3271   */\n      dup3\n        /* \"#utility.yul\":3264:3275   */\n      add\n        /* \"#utility.yul\":3257:3275   */\n      swap1\n      pop\n        /* \"#utility.yul\":2883:3281   */\n      swap2\n      swap1\n      pop\n      jump\t// out\n        /* \"#utility.yul\":3287:3653   */\n    tag_156:\n        /* \"#utility.yul\":3429:3432   */\n      0x00\n        /* \"#utility.yul\":3450:3517   */\n      tag_158\n        /* \"#utility.yul\":3514:3516   */\n      0x13\n        /* \"#utility.yul\":3509:3512   */\n      dup4\n        /* \"#utility.yul\":3450:3517   */\n      tag_147\n      jump\t// in\n    tag_158:\n        /* \"#utility.yul\":3443:3517   */\n      swap2\n      pop\n        /* \"#utility.yul\":3526:3619   */\n      tag_159\n        /* \"#utility.yul\":3615:3618   */\n      dup3\n        /* \"#utility.yul\":3526:3619   */\n      tag_160\n      jump\t// in\n    tag_159:\n        /* \"#utility.yul\":3644:3646   */\n      0x20\n        /* \"#utility.yul\":3639:3642   */\n      dup3\n        /* \"#utility.yul\":3635:3647   */\n      add\n        /* \"#utility.yul\":3628:3647   */\n      swap1\n      pop\n        /* \"#utility.yul\":3287:3653   */\n      swap2\n      swap1\n      pop\n      jump\t// out\n        /* \"#utility.yul\":3659:4025   */\n    tag_161:\n        /* \"#utility.yul\":3801:3804   */\n      0x00\n        /* \"#utility.yul\":3822:3889   */\n      tag_163\n        /* \"#utility.yul\":3886:3888   */\n      0x14\n        /* \"#utility.yul\":3881:3884   */\n      dup4\n        /* \"#utility.yul\":3822:3889   */\n      tag_147\n      jump\t// in\n    tag_163:\n        /* \"#utility.yul\":3815:3889   */\n      swap2\n      pop\n        /* \"#utility.yul\":3898:3991   */\n      tag_164\n        /* \"#utility.yul\":3987:3990   */\n      dup3\n        /* \"#utility.yul\":3898:3991   */\n      tag_165\n      jump\t// in\n    tag_164:\n        /* \"#utility.yul\":4016:4018   */\n      0x20\n        /* \"#utility.yul\":4011:4014   */\n      dup3\n        /* \"#utility.yul\":4007:4019   */\n      add\n        /* \"#utility.yul\":4000:4019   */\n      swap1\n      pop\n        /* \"#utility.yul\":3659:4025   */\n      swap2\n      swap1\n      pop\n      jump\t// out\n        /* \"#utility.yul\":4031:4149   */\n    tag_166:\n        /* \"#utility.yul\":4118:4142   */\n      tag_168\n        /* \"#utility.yul\":4136:4141   */\n      dup2\n        /* \"#utility.yul\":4118:4142   */\n      tag_169\n      jump\t// in\n    tag_168:\n        /* \"#utility.yul\":4113:4116   */\n      dup3\n        /* \"#utility.yul\":4106:4143   */\n      mstore\n        /* \"#utility.yul\":4031:4149   */\n      pop\n      pop\n      jump\t// out\n        /* \"#utility.yul\":4155:4534   */\n    tag_72:\n        /* \"#utility.yul\":4339:4342   */\n      0x00\n        /* \"#utility.yul\":4361:4508   */\n      tag_171\n        /* \"#utility.yul\":4504:4507   */\n      dup3\n        /* \"#utility.yul\":4361:4508   */\n      tag_150\n      jump\t// in\n    tag_171:\n        /* \"#utility.yul\":4354:4508   */\n      swap2\n      pop\n        /* \"#utility.yul\":4525:4528   */\n      dup2\n        /* \"#utility.yul\":4518:4528   */\n      swap1\n      pop\n        /* \"#utility.yul\":4155:4534   */\n      swap2\n      swap1\n      pop\n      jump\t// out\n        /* \"#utility.yul\":4540:4762   */\n    tag_35:\n        /* \"#utility.yul\":4633:4637   */\n      0x00\n        /* \"#utility.yul\":4671:4673   */\n      0x20\n        /* \"#utility.yul\":4660:4669   */\n      dup3\n        /* \"#utility.yul\":4656:4674   */\n      add\n        /* \"#utility.yul\":4648:4674   */\n      swap1\n      pop\n        /* \"#utility.yul\":4684:4755   */\n      tag_173\n        /* \"#utility.yul\":4752:4753   */\n      0x00\n        /* \"#utility.yul\":4741:4750   */\n      dup4\n        /* \"#utility.yul\":4737:4754   */\n      add\n        /* \"#utility.yul\":4728:4734   */\n      dup5\n        /* \"#utility.yul\":4684:4755   */\n      tag_140\n      jump\t// in\n    tag_173:\n        /* \"#utility.yul\":4540:4762   */\n      swap3\n      swap2\n      pop\n      pop\n      jump\t// out\n        /* \"#utility.yul\":4768:5187   */\n    tag_78:\n        /* \"#utility.yul\":4934:4938   */\n      0x00\n        /* \"#utility.yul\":4972:4974   */\n      0x20\n        /* \"#utility.yul\":4961:4970   */\n      dup3\n        /* \"#utility.yul\":4957:4975   */\n      add\n        /* \"#utility.yul\":4949:4975   */\n      swap1\n      pop\n        /* \"#utility.yul\":5021:5030   */\n      dup2\n        /* \"#utility.yul\":5015:5019   */\n      dup2\n        /* \"#utility.yul\":5011:5031   */\n      sub\n        /* \"#utility.yul\":5007:5008   */\n      0x00\n        /* \"#utility.yul\":4996:5005   */\n      dup4\n        /* \"#utility.yul\":4992:5009   */\n      add\n        /* \"#utility.yul\":4985:5032   */\n      mstore\n        /* \"#utility.yul\":5049:5180   */\n      tag_175\n        /* \"#utility.yul\":5175:5179   */\n      dup2\n        /* \"#utility.yul\":5049:5180   */\n      tag_144\n      jump\t// in\n    tag_175:\n        /* \"#utility.yul\":5041:5180   */\n      swap1\n      pop\n        /* \"#utility.yul\":4768:5187   */\n      swap2\n      swap1\n      pop\n      jump\t// out\n        /* \"#utility.yul\":5193:5612   */\n    tag_47:\n        /* \"#utility.yul\":5359:5363   */\n      0x00\n        /* \"#utility.yul\":5397:5399   */\n      0x20\n        /* \"#utility.yul\":5386:5395   */\n      dup3\n        /* \"#utility.yul\":5382:5400   */\n      add\n        /* \"#utility.yul\":5374:5400   */\n      swap1\n      pop\n        /* \"#utility.yul\":5446:5455   */\n      dup2\n        /* \"#utility.yul\":5440:5444   */\n      dup2\n        /* \"#utility.yul\":5436:5456   */\n      sub\n        /* \"#utility.yul\":5432:5433   */\n      0x00\n        /* \"#utility.yul\":5421:5430   */\n      dup4\n        /* \"#utility.yul\":5417:5434   */\n      add\n        /* \"#utility.yul\":5410:5457   */\n      mstore\n        /* \"#utility.yul\":5474:5605   */\n      tag_177\n        /* \"#utility.yul\":5600:5604   */\n      dup2\n        /* \"#utility.yul\":5474:5605   */\n      tag_156\n      jump\t// in\n    tag_177:\n        /* \"#utility.yul\":5466:5605   */\n      swap1\n      pop\n        /* \"#utility.yul\":5193:5612   */\n      swap2\n      swap1\n      pop\n      jump\t// out\n        /* \"#utility.yul\":5618:6037   */\n    tag_54:\n        /* \"#utility.yul\":5784:5788   */\n      0x00\n        /* \"#utility.yul\":5822:5824   */\n      0x20\n        /* \"#utility.yul\":5811:5820   */\n      dup3\n        /* \"#utility.yul\":5807:5825   */\n      add\n        /* \"#utility.yul\":5799:5825   */\n      swap1\n      pop\n        /* \"#utility.yul\":5871:5880   */\n      dup2\n        /* \"#utility.yul\":5865:5869   */\n      dup2\n        /* \"#utility.yul\":5861:5881   */\n      sub\n        /* \"#utility.yul\":5857:5858   */\n      0x00\n        /* \"#utility.yul\":5846:5855   */\n      dup4\n        /* \"#utility.yul\":5842:5859   */\n      add\n        /* \"#utility.yul\":5835:5882   */\n      mstore\n        /* \"#utility.yul\":5899:6030   */\n      tag_179\n        /* \"#utility.yul\":6025:6029   */\n      dup2\n        /* \"#utility.yul\":5899:6030   */\n      tag_161\n      jump\t// in\n    tag_179:\n        /* \"#utility.yul\":5891:6030   */\n      swap1\n      pop\n        /* \"#utility.yul\":5618:6037   */\n      swap2\n      swap1\n      pop\n      jump\t// out\n        /* \"#utility.yul\":6043:6265   */\n    tag_25:\n        /* \"#utility.yul\":6136:6140   */\n      0x00\n        /* \"#utility.yul\":6174:6176   */\n      0x20\n        /* \"#utility.yul\":6163:6172   */\n      dup3\n        /* \"#utility.yul\":6159:6177   */\n      add\n        /* \"#utility.yul\":6151:6177   */\n      swap1\n      pop\n        /* \"#utility.yul\":6187:6258   */\n      tag_181\n        /* \"#utility.yul\":6255:6256   */\n      0x00\n        /* \"#utility.yul\":6244:6253   */\n      dup4\n        /* \"#utility.yul\":6240:6257   */\n      add\n        /* \"#utility.yul\":6231:6237   */\n      dup5\n        /* \"#utility.yul\":6187:6258   */\n      tag_166\n      jump\t// in\n    tag_181:\n        /* \"#utility.yul\":6043:6265   */\n      swap3\n      swap2\n      pop\n      pop\n      jump\t// out\n        /* \"#utility.yul\":6352:6499   */\n    tag_153:\n        /* \"#utility.yul\":6453:6464   */\n      0x00\n        /* \"#utility.yul\":6490:6493   */\n      dup2\n        /* \"#utility.yul\":6475:6493   */\n      swap1\n      pop\n        /* \"#utility.yul\":6352:6499   */\n      swap3\n      swap2\n      pop\n      pop\n      jump\t// out\n        /* \"#utility.yul\":6505:6674   */\n    tag_147:\n        /* \"#utility.yul\":6589:6600   */\n      0x00\n        /* \"#utility.yul\":6623:6629   */\n      dup3\n        /* \"#utility.yul\":6618:6621   */\n      dup3\n        /* \"#utility.yul\":6611:6630   */\n      mstore\n        /* \"#utility.yul\":6663:6667   */\n      0x20\n        /* \"#utility.yul\":6658:6661   */\n      dup3\n        /* \"#utility.yul\":6654:6668   */\n      add\n        /* \"#utility.yul\":6639:6668   */\n      swap1\n      pop\n        /* \"#utility.yul\":6505:6674   */\n      swap3\n      swap2\n      pop\n      pop\n      jump\t// out\n        /* \"#utility.yul\":6680:6985   */\n    tag_50:\n        /* \"#utility.yul\":6720:6723   */\n      0x00\n        /* \"#utility.yul\":6739:6759   */\n      tag_187\n        /* \"#utility.yul\":6757:6758   */\n      dup3\n        /* \"#utility.yul\":6739:6759   */\n      tag_169\n      jump\t// in\n    tag_187:\n        /* \"#utility.yul\":6734:6759   */\n      swap2\n      pop\n        /* \"#utility.yul\":6773:6793   */\n      tag_188\n        /* \"#utility.yul\":6791:6792   */\n      dup4\n        /* \"#utility.yul\":6773:6793   */\n      tag_169\n      jump\t// in\n    tag_188:\n        /* \"#utility.yul\":6768:6793   */\n      swap3\n      pop\n        /* \"#utility.yul\":6927:6928   */\n      dup3\n        /* \"#utility.yul\":6859:6925   */\n      0xffffffffffffffffffffffffffffffffffffffffffffffffffffffffffffffff\n        /* \"#utility.yul\":6855:6929   */\n      sub\n        /* \"#utility.yul\":6852:6853   */\n      dup3\n        /* \"#utility.yul\":6849:6930   */\n      gt\n        /* \"#utility.yul\":6846:6953   */\n      iszero\n      tag_189\n      jumpi\n        /* \"#utility.yul\":6933:6951   */\n      tag_190\n      tag_191\n      jump\t// in\n    tag_190:\n        /* \"#utility.yul\":6846:6953   */\n    tag_189:\n        /* \"#utility.yul\":6977:6978   */\n      dup3\n        /* \"#utility.yul\":6974:6975   */\n      dup3\n        /* \"#utility.yul\":6970:6979   */\n      add\n        /* \"#utility.yul\":6963:6979   */\n      swap1\n      pop\n        /* \"#utility.yul\":6680:6985   */\n      swap3\n      swap2\n      pop\n      pop\n      jump\t// out\n        /* \"#utility.yul\":6991:7176   */\n    tag_87:\n        /* \"#utility.yul\":7031:7032   */\n      0x00\n        /* \"#utility.yul\":7048:7068   */\n      tag_193\n        /* \"#utility.yul\":7066:7067   */\n      dup3\n        /* \"#utility.yul\":7048:7068   */\n      tag_169\n      jump\t// in\n    tag_193:\n        /* \"#utility.yul\":7043:7068   */\n      swap2\n      pop\n        /* \"#utility.yul\":7082:7102   */\n      tag_194\n        /* \"#utility.yul\":7100:7101   */\n      dup4\n        /* \"#utility.yul\":7082:7102   */\n      tag_169\n      jump\t// in\n    tag_194:\n        /* \"#utility.yul\":7077:7102   */\n      swap3\n      pop\n        /* \"#utility.yul\":7121:7122   */\n      dup3\n        /* \"#utility.yul\":7111:7146   */\n      tag_195\n      jumpi\n        /* \"#utility.yul\":7126:7144   */\n      tag_196\n      tag_197\n      jump\t// in\n    tag_196:\n        /* \"#utility.yul\":7111:7146   */\n    tag_195:\n        /* \"#utility.yul\":7168:7169   */\n      dup3\n        /* \"#utility.yul\":7165:7166   */\n      dup3\n        /* \"#utility.yul\":7161:7170   */\n      div\n        /* \"#utility.yul\":7156:7170   */\n      swap1\n      pop\n        /* \"#utility.yul\":6991:7176   */\n      swap3\n      swap2\n      pop\n      pop\n      jump\t// out\n        /* \"#utility.yul\":7182:8173   */\n    tag_95:\n        /* \"#utility.yul\":7221:7228   */\n      0x00\n        /* \"#utility.yul\":7244:7263   */\n      tag_199\n        /* \"#utility.yul\":7261:7262   */\n      dup3\n        /* \"#utility.yul\":7244:7263   */\n      tag_200\n      jump\t// in\n    tag_199:\n        /* \"#utility.yul\":7239:7263   */\n      swap2\n      pop\n        /* \"#utility.yul\":7277:7296   */\n      tag_201\n        /* \"#utility.yul\":7294:7295   */\n      dup4\n        /* \"#utility.yul\":7277:7296   */\n      tag_200\n      jump\t// in\n    tag_201:\n        /* \"#utility.yul\":7272:7296   */\n      swap3\n      pop\n        /* \"#utility.yul\":7478:7479   */\n      dup3\n        /* \"#utility.yul\":7410:7476   */\n      0x7fffffffffffffffffffffffffffffffffffffffffffffffffffffffffffffff\n        /* \"#utility.yul\":7406:7480   */\n      div\n        /* \"#utility.yul\":7403:7404   */\n      dup3\n        /* \"#utility.yul\":7400:7481   */\n      gt\n        /* \"#utility.yul\":7395:7396   */\n      0x00\n        /* \"#utility.yul\":7392:7393   */\n      dup5\n        /* \"#utility.yul\":7388:7397   */\n      sgt\n        /* \"#utility.yul\":7384:7385   */\n      0x00\n        /* \"#utility.yul\":7381:7382   */\n      dup5\n        /* \"#utility.yul\":7377:7386   */\n      sgt\n        /* \"#utility.yul\":7373:7398   */\n      and\n        /* \"#utility.yul\":7369:7482   */\n      and\n        /* \"#utility.yul\":7366:7505   */\n      iszero\n      tag_202\n      jumpi\n        /* \"#utility.yul\":7485:7503   */\n      tag_203\n      tag_191\n      jump\t// in\n    tag_203:\n        /* \"#utility.yul\":7366:7505   */\n    tag_202:\n        /* \"#utility.yul\":7689:7690   */\n      dup2\n        /* \"#utility.yul\":7621:7687   */\n      0x8000000000000000000000000000000000000000000000000000000000000000\n        /* \"#utility.yul\":7616:7691   */\n      sdiv\n        /* \"#utility.yul\":7613:7614   */\n      dup4\n        /* \"#utility.yul\":7609:7692   */\n      slt\n        /* \"#utility.yul\":7604:7605   */\n      0x00\n        /* \"#utility.yul\":7601:7602   */\n      dup5\n        /* \"#utility.yul\":7597:7606   */\n      slt\n        /* \"#utility.yul\":7593:7594   */\n      0x00\n        /* \"#utility.yul\":7590:7591   */\n      dup5\n        /* \"#utility.yul\":7586:7595   */\n      sgt\n        /* \"#utility.yul\":7582:7607   */\n      and\n        /* \"#utility.yul\":7578:7693   */\n      and\n        /* \"#utility.yul\":7575:7716   */\n      iszero\n      tag_204\n      jumpi\n        /* \"#utility.yul\":7696:7714   */\n      tag_205\n      tag_191\n      jump\t// in\n    tag_205:\n        /* \"#utility.yul\":7575:7716   */\n    tag_204:\n        /* \"#utility.yul\":7900:7901   */\n      dup3\n        /* \"#utility.yul\":7832:7898   */\n      0x8000000000000000000000000000000000000000000000000000000000000000\n        /* \"#utility.yul\":7827:7902   */\n      sdiv\n        /* \"#utility.yul\":7824:7825   */\n      dup3\n        /* \"#utility.yul\":7820:7903   */\n      slt\n        /* \"#utility.yul\":7815:7816   */\n      0x00\n        /* \"#utility.yul\":7812:7813   */\n      dup5\n        /* \"#utility.yul\":7808:7817   */\n      sgt\n        /* \"#utility.yul\":7804:7805   */\n      0x00\n        /* \"#utility.yul\":7801:7802   */\n      dup5\n        /* \"#utility.yul\":7797:7806   */\n      slt\n        /* \"#utility.yul\":7793:7818   */\n      and\n        /* \"#utility.yul\":7789:7904   */\n      and\n        /* \"#utility.yul\":7786:7927   */\n      iszero\n      tag_206\n      jumpi\n        /* \"#utility.yul\":7907:7925   */\n      tag_207\n      tag_191\n      jump\t// in\n    tag_207:\n        /* \"#utility.yul\":7786:7927   */\n    tag_206:\n        /* \"#utility.yul\":8110:8111   */\n      dup3\n        /* \"#utility.yul\":8042:8108   */\n      0x7fffffffffffffffffffffffffffffffffffffffffffffffffffffffffffffff\n        /* \"#utility.yul\":8037:8112   */\n      sdiv\n        /* \"#utility.yul\":8034:8035   */\n      dup3\n        /* \"#utility.yul\":8030:8113   */\n      slt\n        /* \"#utility.yul\":8025:8026   */\n      0x00\n        /* \"#utility.yul\":8022:8023   */\n      dup5\n        /* \"#utility.yul\":8018:8027   */\n      slt\n        /* \"#utility.yul\":8014:8015   */\n      0x00\n        /* \"#utility.yul\":8011:8012   */\n      dup5\n        /* \"#utility.yul\":8007:8016   */\n      slt\n        /* \"#utility.yul\":8003:8028   */\n      and\n        /* \"#utility.yul\":7999:8114   */\n      and\n        /* \"#utility.yul\":7996:8137   */\n      iszero\n      tag_208\n      jumpi\n        /* \"#utility.yul\":8117:8135   */\n      tag_209\n      tag_191\n      jump\t// in\n    tag_209:\n        /* \"#utility.yul\":7996:8137   */\n    tag_208:\n        /* \"#utility.yul\":8165:8166   */\n      dup3\n        /* \"#utility.yul\":8162:8163   */\n      dup3\n        /* \"#utility.yul\":8158:8167   */\n      mul\n        /* \"#utility.yul\":8147:8167   */\n      swap1\n      pop\n        /* \"#utility.yul\":7182:8173   */\n      swap3\n      swap2\n      pop\n      pop\n      jump\t// out\n        /* \"#utility.yul\":8179:8527   */\n    tag_85:\n        /* \"#utility.yul\":8219:8226   */\n      0x00\n        /* \"#utility.yul\":8242:8262   */\n      tag_211\n        /* \"#utility.yul\":8260:8261   */\n      dup3\n        /* \"#utility.yul\":8242:8262   */\n      tag_169\n      jump\t// in\n    tag_211:\n        /* \"#utility.yul\":8237:8262   */\n      swap2\n      pop\n        /* \"#utility.yul\":8276:8296   */\n      tag_212\n        /* \"#utility.yul\":8294:8295   */\n      dup4\n        /* \"#utility.yul\":8276:8296   */\n      tag_169\n      jump\t// in\n    tag_212:\n        /* \"#utility.yul\":8271:8296   */\n      swap3\n      pop\n        /* \"#utility.yul\":8464:8465   */\n      dup2\n        /* \"#utility.yul\":8396:8462   */\n      0xffffffffffffffffffffffffffffffffffffffffffffffffffffffffffffffff\n        /* \"#utility.yul\":8392:8466   */\n      div\n        /* \"#utility.yul\":8389:8390   */\n      dup4\n        /* \"#utility.yul\":8386:8467   */\n      gt\n        /* \"#utility.yul\":8381:8382   */\n      dup3\n        /* \"#utility.yul\":8374:8383   */\n      iszero\n        /* \"#utility.yul\":8367:8384   */\n      iszero\n        /* \"#utility.yul\":8363:8468   */\n      and\n        /* \"#utility.yul\":8360:8491   */\n      iszero\n      tag_213\n      jumpi\n        /* \"#utility.yul\":8471:8489   */\n      tag_214\n      tag_191\n      jump\t// in\n    tag_214:\n        /* \"#utility.yul\":8360:8491   */\n    tag_213:\n        /* \"#utility.yul\":8519:8520   */\n      dup3\n        /* \"#utility.yul\":8516:8517   */\n      dup3\n        /* \"#utility.yul\":8512:8521   */\n      mul\n        /* \"#utility.yul\":8501:8521   */\n      swap1\n      pop\n        /* \"#utility.yul\":8179:8527   */\n      swap3\n      swap2\n      pop\n      pop\n      jump\t// out\n        /* \"#utility.yul\":8533:8629   */\n    tag_143:\n        /* \"#utility.yul\":8570:8577   */\n      0x00\n        /* \"#utility.yul\":8599:8623   */\n      tag_216\n        /* \"#utility.yul\":8617:8622   */\n      dup3\n        /* \"#utility.yul\":8599:8623   */\n      tag_217\n      jump\t// in\n    tag_216:\n        /* \"#utility.yul\":8588:8623   */\n      swap1\n      pop\n        /* \"#utility.yul\":8533:8629   */\n      swap2\n      swap1\n      pop\n      jump\t// out\n        /* \"#utility.yul\":8635:8711   */\n    tag_200:\n        /* \"#utility.yul\":8671:8678   */\n      0x00\n        /* \"#utility.yul\":8700:8705   */\n      dup2\n        /* \"#utility.yul\":8689:8705   */\n      swap1\n      pop\n        /* \"#utility.yul\":8635:8711   */\n      swap2\n      swap1\n      pop\n      jump\t// out\n        /* \"#utility.yul\":8717:8843   */\n    tag_217:\n        /* \"#utility.yul\":8754:8761   */\n      0x00\n        /* \"#utility.yul\":8794:8836   */\n      0xffffffffffffffffffffffffffffffffffffffff\n        /* \"#utility.yul\":8787:8792   */\n      dup3\n        /* \"#utility.yul\":8783:8837   */\n      and\n        /* \"#utility.yul\":8772:8837   */\n      swap1\n      pop\n        /* \"#utility.yul\":8717:8843   */\n      swap2\n      swap1\n      pop\n      jump\t// out\n        /* \"#utility.yul\":8849:8926   */\n    tag_169:\n        /* \"#utility.yul\":8886:8893   */\n      0x00\n        /* \"#utility.yul\":8915:8920   */\n      dup2\n        /* \"#utility.yul\":8904:8920   */\n      swap1\n      pop\n        /* \"#utility.yul\":8849:8926   */\n      swap2\n      swap1\n      pop\n      jump\t// out\n        /* \"#utility.yul\":8932:9037   */\n    tag_221:\n        /* \"#utility.yul\":8968:8975   */\n      0x00\n        /* \"#utility.yul\":9008:9030   */\n      0xffffffffffffffffffff\n        /* \"#utility.yul\":9001:9006   */\n      dup3\n        /* \"#utility.yul\":8997:9031   */\n      and\n        /* \"#utility.yul\":8986:9031   */\n      swap1\n      pop\n        /* \"#utility.yul\":8932:9037   */\n      swap2\n      swap1\n      pop\n      jump\t// out\n        /* \"#utility.yul\":9043:9276   */\n    tag_64:\n        /* \"#utility.yul\":9082:9085   */\n      0x00\n        /* \"#utility.yul\":9105:9129   */\n      tag_224\n        /* \"#utility.yul\":9123:9128   */\n      dup3\n        /* \"#utility.yul\":9105:9129   */\n      tag_169\n      jump\t// in\n    tag_224:\n        /* \"#utility.yul\":9096:9129   */\n      swap2\n      pop\n        /* \"#utility.yul\":9151:9217   */\n      0xffffffffffffffffffffffffffffffffffffffffffffffffffffffffffffffff\n        /* \"#utility.yul\":9144:9149   */\n      dup3\n        /* \"#utility.yul\":9141:9218   */\n      eq\n        /* \"#utility.yul\":9138:9241   */\n      iszero\n      tag_225\n      jumpi\n        /* \"#utility.yul\":9221:9239   */\n      tag_226\n      tag_191\n      jump\t// in\n    tag_226:\n        /* \"#utility.yul\":9138:9241   */\n    tag_225:\n        /* \"#utility.yul\":9268:9269   */\n      0x01\n        /* \"#utility.yul\":9261:9266   */\n      dup3\n        /* \"#utility.yul\":9257:9270   */\n      add\n        /* \"#utility.yul\":9250:9270   */\n      swap1\n      pop\n        /* \"#utility.yul\":9043:9276   */\n      swap2\n      swap1\n      pop\n      jump\t// out\n        /* \"#utility.yul\":9282:9462   */\n    tag_191:\n        /* \"#utility.yul\":9330:9407   */\n      0x4e487b7100000000000000000000000000000000000000000000000000000000\n        /* \"#utility.yul\":9327:9328   */\n      0x00\n        /* \"#utility.yul\":9320:9408   */\n      mstore\n        /* \"#utility.yul\":9427:9431   */\n      0x11\n        /* \"#utility.yul\":9424:9425   */\n      0x04\n        /* \"#utility.yul\":9417:9432   */\n      mstore\n        /* \"#utility.yul\":9451:9455   */\n      0x24\n        /* \"#utility.yul\":9448:9449   */\n      0x00\n        /* \"#utility.yul\":9441:9456   */\n      revert\n        /* \"#utility.yul\":9468:9648   */\n    tag_197:\n        /* \"#utility.yul\":9516:9593   */\n      0x4e487b7100000000000000000000000000000000000000000000000000000000\n        /* \"#utility.yul\":9513:9514   */\n      0x00\n        /* \"#utility.yul\":9506:9594   */\n      mstore\n        /* \"#utility.yul\":9613:9617   */\n      0x12\n        /* \"#utility.yul\":9610:9611   */\n      0x04\n        /* \"#utility.yul\":9603:9618   */\n      mstore\n        /* \"#utility.yul\":9637:9641   */\n      0x24\n        /* \"#utility.yul\":9634:9635   */\n      0x00\n        /* \"#utility.yul\":9627:9642   */\n      revert\n        /* \"#utility.yul\":9654:9834   */\n    tag_61:\n        /* \"#utility.yul\":9702:9779   */\n      0x4e487b7100000000000000000000000000000000000000000000000000000000\n        /* \"#utility.yul\":9699:9700   */\n      0x00\n        /* \"#utility.yul\":9692:9780   */\n      mstore\n        /* \"#utility.yul\":9799:9803   */\n      0x32\n        /* \"#utility.yul\":9796:9797   */\n      0x04\n        /* \"#utility.yul\":9789:9804   */\n      mstore\n        /* \"#utility.yul\":9823:9827   */\n      0x24\n        /* \"#utility.yul\":9820:9821   */\n      0x00\n        /* \"#utility.yul\":9813:9828   */\n      revert\n        /* \"#utility.yul\":9840:10020   */\n    tag_67:\n        /* \"#utility.yul\":9888:9965   */\n      0x4e487b7100000000000000000000000000000000000000000000000000000000\n        /* \"#utility.yul\":9885:9886   */\n      0x00\n        /* \"#utility.yul\":9878:9966   */\n      mstore\n        /* \"#utility.yul\":9985:9989   */\n      0x41\n        /* \"#utility.yul\":9982:9983   */\n      0x04\n        /* \"#utility.yul\":9975:9990   */\n      mstore\n        /* \"#utility.yul\":10009:10013   */\n      0x24\n        /* \"#utility.yul\":10006:10007   */\n      0x00\n        /* \"#utility.yul\":9999:10014   */\n      revert\n        /* \"#utility.yul\":10149:10266   */\n    tag_126:\n        /* \"#utility.yul\":10258:10259   */\n      0x00\n        /* \"#utility.yul\":10255:10256   */\n      dup1\n        /* \"#utility.yul\":10248:10260   */\n      revert\n        /* \"#utility.yul\":10272:10433   */\n    tag_149:\n        /* \"#utility.yul\":10412:10425   */\n      0x43616c6c206661696c6564000000000000000000000000000000000000000000\n        /* \"#utility.yul\":10408:10409   */\n      0x00\n        /* \"#utility.yul\":10400:10406   */\n      dup3\n        /* \"#utility.yul\":10396:10410   */\n      add\n        /* \"#utility.yul\":10389:10426   */\n      mstore\n        /* \"#utility.yul\":10272:10433   */\n      pop\n      jump\t// out\n        /* \"#utility.yul\":10439:10553   */\n    tag_155:\n      pop\n      jump\t// out\n        /* \"#utility.yul\":10559:10728   */\n    tag_160:\n        /* \"#utility.yul\":10699:10720   */\n      0x4469646e27742073656e6420656e6f7567682100000000000000000000000000\n        /* \"#utility.yul\":10695:10696   */\n      0x00\n        /* \"#utility.yul\":10687:10693   */\n      dup3\n        /* \"#utility.yul\":10683:10697   */\n      add\n        /* \"#utility.yul\":10676:10721   */\n      mstore\n        /* \"#utility.yul\":10559:10728   */\n      pop\n      jump\t// out\n        /* \"#utility.yul\":10734:10904   */\n    tag_165:\n        /* \"#utility.yul\":10874:10896   */\n      0x53656e646572206973206e6f74206f776e657221000000000000000000000000\n        /* \"#utility.yul\":10870:10871   */\n      0x00\n        /* \"#utility.yul\":10862:10868   */\n      dup3\n        /* \"#utility.yul\":10858:10872   */\n      add\n        /* \"#utility.yul\":10851:10897   */\n      mstore\n        /* \"#utility.yul\":10734:10904   */\n      pop\n      jump\t// out\n        /* \"#utility.yul\":10910:11032   */\n    tag_107:\n        /* \"#utility.yul\":10983:11007   */\n      tag_239\n        /* \"#utility.yul\":11001:11006   */\n      dup2\n        /* \"#utility.yul\":10983:11007   */\n      tag_143\n      jump\t// in\n    tag_239:\n        /* \"#utility.yul\":10976:10981   */\n      dup2\n        /* \"#utility.yul\":10973:11008   */\n      eq\n        /* \"#utility.yul\":10963:11026   */\n      tag_240\n      jumpi\n        /* \"#utility.yul\":11022:11023   */\n      0x00\n        /* \"#utility.yul\":11019:11020   */\n      dup1\n        /* \"#utility.yul\":11012:11024   */\n      revert\n        /* \"#utility.yul\":10963:11026   */\n    tag_240:\n        /* \"#utility.yul\":10910:11032   */\n      pop\n      jump\t// out\n        /* \"#utility.yul\":11038:11158   */\n    tag_111:\n        /* \"#utility.yul\":11110:11133   */\n      tag_242\n        /* \"#utility.yul\":11127:11132   */\n      dup2\n        /* \"#utility.yul\":11110:11133   */\n      tag_200\n      jump\t// in\n    tag_242:\n        /* \"#utility.yul\":11103:11108   */\n      dup2\n        /* \"#utility.yul\":11100:11134   */\n      eq\n        /* \"#utility.yul\":11090:11152   */\n      tag_243\n      jumpi\n        /* \"#utility.yul\":11148:11149   */\n      0x00\n        /* \"#utility.yul\":11145:11146   */\n      dup1\n        /* \"#utility.yul\":11138:11150   */\n      revert\n        /* \"#utility.yul\":11090:11152   */\n    tag_243:\n        /* \"#utility.yul\":11038:11158   */\n      pop\n      jump\t// out\n        /* \"#utility.yul\":11164:11286   */\n    tag_115:\n        /* \"#utility.yul\":11237:11261   */\n      tag_245\n        /* \"#utility.yul\":11255:11260   */\n      dup2\n        /* \"#utility.yul\":11237:11261   */\n      tag_169\n      jump\t// in\n    tag_245:\n        /* \"#utility.yul\":11230:11235   */\n      dup2\n        /* \"#utility.yul\":11227:11262   */\n      eq\n        /* \"#utility.yul\":11217:11280   */\n      tag_246\n      jumpi\n        /* \"#utility.yul\":11276:11277   */\n      0x00\n        /* \"#utility.yul\":11273:11274   */\n      dup1\n        /* \"#utility.yul\":11266:11278   */\n      revert\n        /* \"#utility.yul\":11217:11280   */\n    tag_246:\n        /* \"#utility.yul\":11164:11286   */\n      pop\n      jump\t// out\n        /* \"#utility.yul\":11292:11412   */\n    tag_122:\n        /* \"#utility.yul\":11364:11387   */\n      tag_248\n        /* \"#utility.yul\":11381:11386   */\n      dup2\n        /* \"#utility.yul\":11364:11387   */\n      tag_221\n      jump\t// in\n    tag_248:\n        /* \"#utility.yul\":11357:11362   */\n      dup2\n        /* \"#utility.yul\":11354:11388   */\n      eq\n        /* \"#utility.yul\":11344:11406   */\n      tag_249\n      jumpi\n        /* \"#utility.yul\":11402:11403   */\n      0x00\n        /* \"#utility.yul\":11399:11400   */\n      dup1\n        /* \"#utility.yul\":11392:11404   */\n      revert\n        /* \"#utility.yul\":11344:11406   */\n    tag_249:\n        /* \"#utility.yul\":11292:11412   */\n      pop\n      jump\t// out\n\n    auxdata: 0xa2646970667358221220e3b1f700240dfa1aff5f34fa8b25edaad366aa374b367eb48928d7699d15892064736f6c63430008070033\n}\n",
				"bytecode": {
					"linkReferences": {},
					"object": "60a060405234801561001057600080fd5b503373ffffffffffffffffffffffffffffffffffffffff1660808173ffffffffffffffffffffffffffffffffffffffff1660601b8152505060805160601c610df961006d6000396000818161027401526104e20152610df96000f3fe6080604052600436106100595760003560e01c80633ccfd60b146100725780633e47d6f3146100895780636b69a592146100c6578063b60d4288146100f1578063dba6335f146100fb578063dc0d3dff1461012657610068565b3661006857610066610163565b005b610070610163565b005b34801561007e57600080fd5b50610087610272565b005b34801561009557600080fd5b506100b060048036038101906100ab9190610745565b6104bb565b6040516100bd9190610954565b60405180910390f35b3480156100d257600080fd5b506100db6104d3565b6040516100e89190610954565b60405180910390f35b6100f9610163565b005b34801561010757600080fd5b506101106104e0565b60405161011d91906108d9565b60405180910390f35b34801561013257600080fd5b5061014d60048036038101906101489190610772565b610504565b60405161015a91906108d9565b60405180910390f35b6802b5e3af16b188000061017634610543565b10156101b7576040517f08c379a00000000000000000000000000000000000000000000000000000000081526004016101ae90610914565b60405180910390fd5b6000339080600181540180825580915050600190039060005260206000200160009091909190916101000a81548173ffffffffffffffffffffffffffffffffffffffff021916908373ffffffffffffffffffffffffffffffffffffffff16021790555034600160003373ffffffffffffffffffffffffffffffffffffffff1673ffffffffffffffffffffffffffffffffffffffff1681526020019081526020016000206000828254610269919061098b565b92505081905550565b7f000000000000000000000000000000000000000000000000000000000000000073ffffffffffffffffffffffffffffffffffffffff163373ffffffffffffffffffffffffffffffffffffffff1614610300576040517f08c379a00000000000000000000000000000000000000000000000000000000081526004016102f790610934565b60405180910390fd5b60005b6000805490508110156103ab57600080828154811061032557610324610c86565b5b9060005260206000200160009054906101000a900473ffffffffffffffffffffffffffffffffffffffff1690506000600160008373ffffffffffffffffffffffffffffffffffffffff1673ffffffffffffffffffffffffffffffffffffffff168152602001908152602001600020819055505080806103a390610bdf565b915050610303565b50600067ffffffffffffffff8111156103c7576103c6610cb5565b5b6040519080825280602002602001820160405280156103f55781602001602082028036833780820191505090505b506000908051906020019061040b929190610635565b5060003373ffffffffffffffffffffffffffffffffffffffff1647604051610432906108c4565b60006040518083038185875af1925050503d806000811461046f576040519150601f19603f3d011682016040523d82523d6000602084013e610474565b606091505b50509050806104b8576040517f08c379a00000000000000000000000000000000000000000000000000000000081526004016104af906108f4565b60405180910390fd5b50565b60016020528060005260406000206000915090505481565b6802b5e3af16b188000081565b7f000000000000000000000000000000000000000000000000000000000000000081565b6000818154811061051457600080fd5b906000526020600020016000915054906101000a900473ffffffffffffffffffffffffffffffffffffffff1681565b60008061054e61057d565b90506000670de0b6b3a764000084836105679190610b29565b61057191906109e1565b90508092505050919050565b60008073d4a33860578de61dbabdc8bfdb98fd742fa7028e905060008173ffffffffffffffffffffffffffffffffffffffff1663feaf968c6040518163ffffffff1660e01b815260040160a06040518083038186803b1580156105df57600080fd5b505afa1580156105f3573d6000803e3d6000fd5b505050506040513d601f19601f82011682018060405250810190610617919061079f565b5050509150506402540be4008161062e9190610a12565b9250505090565b8280548282559060005260206000209081019282156106ae579160200282015b828111156106ad5782518260006101000a81548173ffffffffffffffffffffffffffffffffffffffff021916908373ffffffffffffffffffffffffffffffffffffffff16021790555091602001919060010190610655565b5b5090506106bb91906106bf565b5090565b5b808211156106d85760008160009055506001016106c0565b5090565b6000813590506106eb81610d67565b92915050565b60008151905061070081610d7e565b92915050565b60008135905061071581610d95565b92915050565b60008151905061072a81610d95565b92915050565b60008151905061073f81610dac565b92915050565b60006020828403121561075b5761075a610ce4565b5b6000610769848285016106dc565b91505092915050565b60006020828403121561078857610787610ce4565b5b600061079684828501610706565b91505092915050565b600080600080600060a086880312156107bb576107ba610ce4565b5b60006107c988828901610730565b95505060206107da888289016106f1565b94505060406107eb8882890161071b565b93505060606107fc8882890161071b565b925050608061080d88828901610730565b9150509295509295909350565b61082381610b83565b82525050565b6000610836600b8361097a565b915061084182610ce9565b602082019050919050565b600061085960008361096f565b915061086482610d12565b600082019050919050565b600061087c60138361097a565b915061088782610d15565b602082019050919050565b600061089f60148361097a565b91506108aa82610d3e565b602082019050919050565b6108be81610bbf565b82525050565b60006108cf8261084c565b9150819050919050565b60006020820190506108ee600083018461081a565b92915050565b6000602082019050818103600083015261090d81610829565b9050919050565b6000602082019050818103600083015261092d8161086f565b9050919050565b6000602082019050818103600083015261094d81610892565b9050919050565b600060208201905061096960008301846108b5565b92915050565b600081905092915050565b600082825260208201905092915050565b600061099682610bbf565b91506109a183610bbf565b9250827fffffffffffffffffffffffffffffffffffffffffffffffffffffffffffffffff038211156109d6576109d5610c28565b5b828201905092915050565b60006109ec82610bbf565b91506109f783610bbf565b925082610a0757610a06610c57565b5b828204905092915050565b6000610a1d82610b95565b9150610a2883610b95565b9250827f7fffffffffffffffffffffffffffffffffffffffffffffffffffffffffffffff0482116000841360008413161615610a6757610a66610c28565b5b817f80000000000000000000000000000000000000000000000000000000000000000583126000841260008413161615610aa457610aa3610c28565b5b827f80000000000000000000000000000000000000000000000000000000000000000582126000841360008412161615610ae157610ae0610c28565b5b827f7fffffffffffffffffffffffffffffffffffffffffffffffffffffffffffffff0582126000841260008412161615610b1e57610b1d610c28565b5b828202905092915050565b6000610b3482610bbf565b9150610b3f83610bbf565b9250817fffffffffffffffffffffffffffffffffffffffffffffffffffffffffffffffff0483118215151615610b7857610b77610c28565b5b828202905092915050565b6000610b8e82610b9f565b9050919050565b6000819050919050565b600073ffffffffffffffffffffffffffffffffffffffff82169050919050565b6000819050919050565b600069ffffffffffffffffffff82169050919050565b6000610bea82610bbf565b91507fffffffffffffffffffffffffffffffffffffffffffffffffffffffffffffffff821415610c1d57610c1c610c28565b5b600182019050919050565b7f4e487b7100000000000000000000000000000000000000000000000000000000600052601160045260246000fd5b7f4e487b7100000000000000000000000000000000000000000000000000000000600052601260045260246000fd5b7f4e487b7100000000000000000000000000000000000000000000000000000000600052603260045260246000fd5b7f4e487b7100000000000000000000000000000000000000000000000000000000600052604160045260246000fd5b600080fd5b7f43616c6c206661696c6564000000000000000000000000000000000000000000600082015250565b50565b7f4469646e27742073656e6420656e6f7567682100000000000000000000000000600082015250565b7f53656e646572206973206e6f74206f776e657221000000000000000000000000600082015250565b610d7081610b83565b8114610d7b57600080fd5b50565b610d8781610b95565b8114610d9257600080fd5b50565b610d9e81610bbf565b8114610da957600080fd5b50565b610db581610bc9565b8114610dc057600080fd5b5056fea2646970667358221220e3b1f700240dfa1aff5f34fa8b25edaad366aa374b367eb48928d7699d15892064736f6c63430008070033",
					"opcodes": "PUSH1 0xA0 PUSH1 0x40 MSTORE CALLVALUE DUP1 ISZERO PUSH2 0x10 JUMPI PUSH1 0x0 DUP1 REVERT JUMPDEST POP CALLER PUSH20 0xFFFFFFFFFFFFFFFFFFFFFFFFFFFFFFFFFFFFFFFF AND PUSH1 0x80 DUP2 PUSH20 0xFFFFFFFFFFFFFFFFFFFFFFFFFFFFFFFFFFFFFFFF AND PUSH1 0x60 SHL DUP2 MSTORE POP POP PUSH1 0x80 MLOAD PUSH1 0x60 SHR PUSH2 0xDF9 PUSH2 0x6D PUSH1 0x0 CODECOPY PUSH1 0x0 DUP2 DUP2 PUSH2 0x274 ADD MSTORE PUSH2 0x4E2 ADD MSTORE PUSH2 0xDF9 PUSH1 0x0 RETURN INVALID PUSH1 0x80 PUSH1 0x40 MSTORE PUSH1 0x4 CALLDATASIZE LT PUSH2 0x59 JUMPI PUSH1 0x0 CALLDATALOAD PUSH1 0xE0 SHR DUP1 PUSH4 0x3CCFD60B EQ PUSH2 0x72 JUMPI DUP1 PUSH4 0x3E47D6F3 EQ PUSH2 0x89 JUMPI DUP1 PUSH4 0x6B69A592 EQ PUSH2 0xC6 JUMPI DUP1 PUSH4 0xB60D4288 EQ PUSH2 0xF1 JUMPI DUP1 PUSH4 0xDBA6335F EQ PUSH2 0xFB JUMPI DUP1 PUSH4 0xDC0D3DFF EQ PUSH2 0x126 JUMPI PUSH2 0x68 JUMP JUMPDEST CALLDATASIZE PUSH2 0x68 JUMPI PUSH2 0x66 PUSH2 0x163 JUMP JUMPDEST STOP JUMPDEST PUSH2 0x70 PUSH2 0x163 JUMP JUMPDEST STOP JUMPDEST CALLVALUE DUP1 ISZERO PUSH2 0x7E JUMPI PUSH1 0x0 DUP1 REVERT JUMPDEST POP PUSH2 0x87 PUSH2 0x272 JUMP JUMPDEST STOP JUMPDEST CALLVALUE DUP1 ISZERO PUSH2 0x95 JUMPI PUSH1 0x0 DUP1 REVERT JUMPDEST POP PUSH2 0xB0 PUSH1 0x4 DUP1 CALLDATASIZE SUB DUP2 ADD SWAP1 PUSH2 0xAB SWAP2 SWAP1 PUSH2 0x745 JUMP JUMPDEST PUSH2 0x4BB JUMP JUMPDEST PUSH1 0x40 MLOAD PUSH2 0xBD SWAP2 SWAP1 PUSH2 0x954 JUMP JUMPDEST PUSH1 0x40 MLOAD DUP1 SWAP2 SUB SWAP1 RETURN JUMPDEST CALLVALUE DUP1 ISZERO PUSH2 0xD2 JUMPI PUSH1 0x0 DUP1 REVERT JUMPDEST POP PUSH2 0xDB PUSH2 0x4D3 JUMP JUMPDEST PUSH1 0x40 MLOAD PUSH2 0xE8 SWAP2 SWAP1 PUSH2 0x954 JUMP JUMPDEST PUSH1 0x40 MLOAD DUP1 SWAP2 SUB SWAP1 RETURN JUMPDEST PUSH2 0xF9 PUSH2 0x163 JUMP JUMPDEST STOP JUMPDEST CALLVALUE DUP1 ISZERO PUSH2 0x107 JUMPI PUSH1 0x0 DUP1 REVERT JUMPDEST POP PUSH2 0x110 PUSH2 0x4E0 JUMP JUMPDEST PUSH1 0x40 MLOAD PUSH2 0x11D SWAP2 SWAP1 PUSH2 0x8D9 JUMP JUMPDEST PUSH1 0x40 MLOAD DUP1 SWAP2 SUB SWAP1 RETURN JUMPDEST CALLVALUE DUP1 ISZERO PUSH2 0x132 JUMPI PUSH1 0x0 DUP1 REVERT JUMPDEST POP PUSH2 0x14D PUSH1 0x4 DUP1 CALLDATASIZE SUB DUP2 ADD SWAP1 PUSH2 0x148 SWAP2 SWAP1 PUSH2 0x772 JUMP JUMPDEST PUSH2 0x504 JUMP JUMPDEST PUSH1 0x40 MLOAD PUSH2 0x15A SWAP2 SWAP1 PUSH2 0x8D9 JUMP JUMPDEST PUSH1 0x40 MLOAD DUP1 SWAP2 SUB SWAP1 RETURN JUMPDEST PUSH9 0x2B5E3AF16B1880000 PUSH2 0x176 CALLVALUE PUSH2 0x543 JUMP JUMPDEST LT ISZERO PUSH2 0x1B7 JUMPI PUSH1 0x40 MLOAD PUSH32 0x8C379A000000000000000000000000000000000000000000000000000000000 DUP2 MSTORE PUSH1 0x4 ADD PUSH2 0x1AE SWAP1 PUSH2 0x914 JUMP JUMPDEST PUSH1 0x40 MLOAD DUP1 SWAP2 SUB SWAP1 REVERT JUMPDEST PUSH1 0x0 CALLER SWAP1 DUP1 PUSH1 0x1 DUP2 SLOAD ADD DUP1 DUP3 SSTORE DUP1 SWAP2 POP POP PUSH1 0x1 SWAP1 SUB SWAP1 PUSH1 0x0 MSTORE PUSH1 0x20 PUSH1 0x0 KECCAK256 ADD PUSH1 0x0 SWAP1 SWAP2 SWAP1 SWAP2 SWAP1 SWAP2 PUSH2 0x100 EXP DUP2 SLOAD DUP2 PUSH20 0xFFFFFFFFFFFFFFFFFFFFFFFFFFFFFFFFFFFFFFFF MUL NOT AND SWAP1 DUP4 PUSH20 0xFFFFFFFFFFFFFFFFFFFFFFFFFFFFFFFFFFFFFFFF AND MUL OR SWAP1 SSTORE POP CALLVALUE PUSH1 0x1 PUSH1 0x0 CALLER PUSH20 0xFFFFFFFFFFFFFFFFFFFFFFFFFFFFFFFFFFFFFFFF AND PUSH20 0xFFFFFFFFFFFFFFFFFFFFFFFFFFFFFFFFFFFFFFFF AND DUP2 MSTORE PUSH1 0x20 ADD SWAP1 DUP2 MSTORE PUSH1 0x20 ADD PUSH1 0x0 KECCAK256 PUSH1 0x0 DUP3 DUP3 SLOAD PUSH2 0x269 SWAP2 SWAP1 PUSH2 0x98B JUMP JUMPDEST SWAP3 POP POP DUP2 SWAP1 SSTORE POP JUMP JUMPDEST PUSH32 0x0 PUSH20 0xFFFFFFFFFFFFFFFFFFFFFFFFFFFFFFFFFFFFFFFF AND CALLER PUSH20 0xFFFFFFFFFFFFFFFFFFFFFFFFFFFFFFFFFFFFFFFF AND EQ PUSH2 0x300 JUMPI PUSH1 0x40 MLOAD PUSH32 0x8C379A000000000000000000000000000000000000000000000000000000000 DUP2 MSTORE PUSH1 0x4 ADD PUSH2 0x2F7 SWAP1 PUSH2 0x934 JUMP JUMPDEST PUSH1 0x40 MLOAD DUP1 SWAP2 SUB SWAP1 REVERT JUMPDEST PUSH1 0x0 JUMPDEST PUSH1 0x0 DUP1 SLOAD SWAP1 POP DUP2 LT ISZERO PUSH2 0x3AB JUMPI PUSH1 0x0 DUP1 DUP3 DUP2 SLOAD DUP2 LT PUSH2 0x325 JUMPI PUSH2 0x324 PUSH2 0xC86 JUMP JUMPDEST JUMPDEST SWAP1 PUSH1 0x0 MSTORE PUSH1 0x20 PUSH1 0x0 KECCAK256 ADD PUSH1 0x0 SWAP1 SLOAD SWAP1 PUSH2 0x100 EXP SWAP1 DIV PUSH20 0xFFFFFFFFFFFFFFFFFFFFFFFFFFFFFFFFFFFFFFFF AND SWAP1 POP PUSH1 0x0 PUSH1 0x1 PUSH1 0x0 DUP4 PUSH20 0xFFFFFFFFFFFFFFFFFFFFFFFFFFFFFFFFFFFFFFFF AND PUSH20 0xFFFFFFFFFFFFFFFFFFFFFFFFFFFFFFFFFFFFFFFF AND DUP2 MSTORE PUSH1 0x20 ADD SWAP1 DUP2 MSTORE PUSH1 0x20 ADD PUSH1 0x0 KECCAK256 DUP2 SWAP1 SSTORE POP POP DUP1 DUP1 PUSH2 0x3A3 SWAP1 PUSH2 0xBDF JUMP JUMPDEST SWAP2 POP POP PUSH2 0x303 JUMP JUMPDEST POP PUSH1 0x0 PUSH8 0xFFFFFFFFFFFFFFFF DUP2 GT ISZERO PUSH2 0x3C7 JUMPI PUSH2 0x3C6 PUSH2 0xCB5 JUMP JUMPDEST JUMPDEST PUSH1 0x40 MLOAD SWAP1 DUP1 DUP3 MSTORE DUP1 PUSH1 0x20 MUL PUSH1 0x20 ADD DUP3 ADD PUSH1 0x40 MSTORE DUP1 ISZERO PUSH2 0x3F5 JUMPI DUP2 PUSH1 0x20 ADD PUSH1 0x20 DUP3 MUL DUP1 CALLDATASIZE DUP4 CALLDATACOPY DUP1 DUP3 ADD SWAP2 POP POP SWAP1 POP JUMPDEST POP PUSH1 0x0 SWAP1 DUP1 MLOAD SWAP1 PUSH1 0x20 ADD SWAP1 PUSH2 0x40B SWAP3 SWAP2 SWAP1 PUSH2 0x635 JUMP JUMPDEST POP PUSH1 0x0 CALLER PUSH20 0xFFFFFFFFFFFFFFFFFFFFFFFFFFFFFFFFFFFFFFFF AND SELFBALANCE PUSH1 0x40 MLOAD PUSH2 0x432 SWAP1 PUSH2 0x8C4 JUMP JUMPDEST PUSH1 0x0 PUSH1 0x40 MLOAD DUP1 DUP4 SUB DUP2 DUP6 DUP8 GAS CALL SWAP3 POP POP POP RETURNDATASIZE DUP1 PUSH1 0x0 DUP2 EQ PUSH2 0x46F JUMPI PUSH1 0x40 MLOAD SWAP2 POP PUSH1 0x1F NOT PUSH1 0x3F RETURNDATASIZE ADD AND DUP3 ADD PUSH1 0x40 MSTORE RETURNDATASIZE DUP3 MSTORE RETURNDATASIZE PUSH1 0x0 PUSH1 0x20 DUP5 ADD RETURNDATACOPY PUSH2 0x474 JUMP JUMPDEST PUSH1 0x60 SWAP2 POP JUMPDEST POP POP SWAP1 POP DUP1 PUSH2 0x4B8 JUMPI PUSH1 0x40 MLOAD PUSH32 0x8C379A000000000000000000000000000000000000000000000000000000000 DUP2 MSTORE PUSH1 0x4 ADD PUSH2 0x4AF SWAP1 PUSH2 0x8F4 JUMP JUMPDEST PUSH1 0x40 MLOAD DUP1 SWAP2 SUB SWAP1 REVERT JUMPDEST POP JUMP JUMPDEST PUSH1 0x1 PUSH1 0x20 MSTORE DUP1 PUSH1 0x0 MSTORE PUSH1 0x40 PUSH1 0x0 KECCAK256 PUSH1 0x0 SWAP2 POP SWAP1 POP SLOAD DUP2 JUMP JUMPDEST PUSH9 0x2B5E3AF16B1880000 DUP2 JUMP JUMPDEST PUSH32 0x0 DUP2 JUMP JUMPDEST PUSH1 0x0 DUP2 DUP2 SLOAD DUP2 LT PUSH2 0x514 JUMPI PUSH1 0x0 DUP1 REVERT JUMPDEST SWAP1 PUSH1 0x0 MSTORE PUSH1 0x20 PUSH1 0x0 KECCAK256 ADD PUSH1 0x0 SWAP2 POP SLOAD SWAP1 PUSH2 0x100 EXP SWAP1 DIV PUSH20 0xFFFFFFFFFFFFFFFFFFFFFFFFFFFFFFFFFFFFFFFF AND DUP2 JUMP JUMPDEST PUSH1 0x0 DUP1 PUSH2 0x54E PUSH2 0x57D JUMP JUMPDEST SWAP1 POP PUSH1 0x0 PUSH8 0xDE0B6B3A7640000 DUP5 DUP4 PUSH2 0x567 SWAP2 SWAP1 PUSH2 0xB29 JUMP JUMPDEST PUSH2 0x571 SWAP2 SWAP1 PUSH2 0x9E1 JUMP JUMPDEST SWAP1 POP DUP1 SWAP3 POP POP POP SWAP2 SWAP1 POP JUMP JUMPDEST PUSH1 0x0 DUP1 PUSH20 0xD4A33860578DE61DBABDC8BFDB98FD742FA7028E SWAP1 POP PUSH1 0x0 DUP2 PUSH20 0xFFFFFFFFFFFFFFFFFFFFFFFFFFFFFFFFFFFFFFFF AND PUSH4 0xFEAF968C PUSH1 0x40 MLOAD DUP2 PUSH4 0xFFFFFFFF AND PUSH1 0xE0 SHL DUP2 MSTORE PUSH1 0x4 ADD PUSH1 0xA0 PUSH1 0x40 MLOAD DUP1 DUP4 SUB DUP2 DUP7 DUP1 EXTCODESIZE ISZERO DUP1 ISZERO PUSH2 0x5DF JUMPI PUSH1 0x0 DUP1 REVERT JUMPDEST POP GAS STATICCALL ISZERO DUP1 ISZERO PUSH2 0x5F3 JUMPI RETURNDATASIZE PUSH1 0x0 DUP1 RETURNDATACOPY RETURNDATASIZE PUSH1 0x0 REVERT JUMPDEST POP POP POP POP PUSH1 0x40 MLOAD RETURNDATASIZE PUSH1 0x1F NOT PUSH1 0x1F DUP3 ADD AND DUP3 ADD DUP1 PUSH1 0x40 MSTORE POP DUP2 ADD SWAP1 PUSH2 0x617 SWAP2 SWAP1 PUSH2 0x79F JUMP JUMPDEST POP POP POP SWAP2 POP POP PUSH5 0x2540BE400 DUP2 PUSH2 0x62E SWAP2 SWAP1 PUSH2 0xA12 JUMP JUMPDEST SWAP3 POP POP POP SWAP1 JUMP JUMPDEST DUP3 DUP1 SLOAD DUP3 DUP3 SSTORE SWAP1 PUSH1 0x0 MSTORE PUSH1 0x20 PUSH1 0x0 KECCAK256 SWAP1 DUP2 ADD SWAP3 DUP3 ISZERO PUSH2 0x6AE JUMPI SWAP2 PUSH1 0x20 MUL DUP3 ADD JUMPDEST DUP3 DUP2 GT ISZERO PUSH2 0x6AD JUMPI DUP3 MLOAD DUP3 PUSH1 0x0 PUSH2 0x100 EXP DUP2 SLOAD DUP2 PUSH20 0xFFFFFFFFFFFFFFFFFFFFFFFFFFFFFFFFFFFFFFFF MUL NOT AND SWAP1 DUP4 PUSH20 0xFFFFFFFFFFFFFFFFFFFFFFFFFFFFFFFFFFFFFFFF AND MUL OR SWAP1 SSTORE POP SWAP2 PUSH1 0x20 ADD SWAP2 SWAP1 PUSH1 0x1 ADD SWAP1 PUSH2 0x655 JUMP JUMPDEST JUMPDEST POP SWAP1 POP PUSH2 0x6BB SWAP2 SWAP1 PUSH2 0x6BF JUMP JUMPDEST POP SWAP1 JUMP JUMPDEST JUMPDEST DUP1 DUP3 GT ISZERO PUSH2 0x6D8 JUMPI PUSH1 0x0 DUP2 PUSH1 0x0 SWAP1 SSTORE POP PUSH1 0x1 ADD PUSH2 0x6C0 JUMP JUMPDEST POP SWAP1 JUMP JUMPDEST PUSH1 0x0 DUP2 CALLDATALOAD SWAP1 POP PUSH2 0x6EB DUP2 PUSH2 0xD67 JUMP JUMPDEST SWAP3 SWAP2 POP POP JUMP JUMPDEST PUSH1 0x0 DUP2 MLOAD SWAP1 POP PUSH2 0x700 DUP2 PUSH2 0xD7E JUMP JUMPDEST SWAP3 SWAP2 POP POP JUMP JUMPDEST PUSH1 0x0 DUP2 CALLDATALOAD SWAP1 POP PUSH2 0x715 DUP2 PUSH2 0xD95 JUMP JUMPDEST SWAP3 SWAP2 POP POP JUMP JUMPDEST PUSH1 0x0 DUP2 MLOAD SWAP1 POP PUSH2 0x72A DUP2 PUSH2 0xD95 JUMP JUMPDEST SWAP3 SWAP2 POP POP JUMP JUMPDEST PUSH1 0x0 DUP2 MLOAD SWAP1 POP PUSH2 0x73F DUP2 PUSH2 0xDAC JUMP JUMPDEST SWAP3 SWAP2 POP POP JUMP JUMPDEST PUSH1 0x0 PUSH1 0x20 DUP3 DUP5 SUB SLT ISZERO PUSH2 0x75B JUMPI PUSH2 0x75A PUSH2 0xCE4 JUMP JUMPDEST JUMPDEST PUSH1 0x0 PUSH2 0x769 DUP5 DUP3 DUP6 ADD PUSH2 0x6DC JUMP JUMPDEST SWAP2 POP POP SWAP3 SWAP2 POP POP JUMP JUMPDEST PUSH1 0x0 PUSH1 0x20 DUP3 DUP5 SUB SLT ISZERO PUSH2 0x788 JUMPI PUSH2 0x787 PUSH2 0xCE4 JUMP JUMPDEST JUMPDEST PUSH1 0x0 PUSH2 0x796 DUP5 DUP3 DUP6 ADD PUSH2 0x706 JUMP JUMPDEST SWAP2 POP POP SWAP3 SWAP2 POP POP JUMP JUMPDEST PUSH1 0x0 DUP1 PUSH1 0x0 DUP1 PUSH1 0x0 PUSH1 0xA0 DUP7 DUP9 SUB SLT ISZERO PUSH2 0x7BB JUMPI PUSH2 0x7BA PUSH2 0xCE4 JUMP JUMPDEST JUMPDEST PUSH1 0x0 PUSH2 0x7C9 DUP9 DUP3 DUP10 ADD PUSH2 0x730 JUMP JUMPDEST SWAP6 POP POP PUSH1 0x20 PUSH2 0x7DA DUP9 DUP3 DUP10 ADD PUSH2 0x6F1 JUMP JUMPDEST SWAP5 POP POP PUSH1 0x40 PUSH2 0x7EB DUP9 DUP3 DUP10 ADD PUSH2 0x71B JUMP JUMPDEST SWAP4 POP POP PUSH1 0x60 PUSH2 0x7FC DUP9 DUP3 DUP10 ADD PUSH2 0x71B JUMP JUMPDEST SWAP3 POP POP PUSH1 0x80 PUSH2 0x80D DUP9 DUP3 DUP10 ADD PUSH2 0x730 JUMP JUMPDEST SWAP2 POP POP SWAP3 SWAP6 POP SWAP3 SWAP6 SWAP1 SWAP4 POP JUMP JUMPDEST PUSH2 0x823 DUP2 PUSH2 0xB83 JUMP JUMPDEST DUP3 MSTORE POP POP JUMP JUMPDEST PUSH1 0x0 PUSH2 0x836 PUSH1 0xB DUP4 PUSH2 0x97A JUMP JUMPDEST SWAP2 POP PUSH2 0x841 DUP3 PUSH2 0xCE9 JUMP JUMPDEST PUSH1 0x20 DUP3 ADD SWAP1 POP SWAP2 SWAP1 POP JUMP JUMPDEST PUSH1 0x0 PUSH2 0x859 PUSH1 0x0 DUP4 PUSH2 0x96F JUMP JUMPDEST SWAP2 POP PUSH2 0x864 DUP3 PUSH2 0xD12 JUMP JUMPDEST PUSH1 0x0 DUP3 ADD SWAP1 POP SWAP2 SWAP1 POP JUMP JUMPDEST PUSH1 0x0 PUSH2 0x87C PUSH1 0x13 DUP4 PUSH2 0x97A JUMP JUMPDEST SWAP2 POP PUSH2 0x887 DUP3 PUSH2 0xD15 JUMP JUMPDEST PUSH1 0x20 DUP3 ADD SWAP1 POP SWAP2 SWAP1 POP JUMP JUMPDEST PUSH1 0x0 PUSH2 0x89F PUSH1 0x14 DUP4 PUSH2 0x97A JUMP JUMPDEST SWAP2 POP PUSH2 0x8AA DUP3 PUSH2 0xD3E JUMP JUMPDEST PUSH1 0x20 DUP3 ADD SWAP1 POP SWAP2 SWAP1 POP JUMP JUMPDEST PUSH2 0x8BE DUP2 PUSH2 0xBBF JUMP JUMPDEST DUP3 MSTORE POP POP JUMP JUMPDEST PUSH1 0x0 PUSH2 0x8CF DUP3 PUSH2 0x84C JUMP JUMPDEST SWAP2 POP DUP2 SWAP1 POP SWAP2 SWAP1 POP JUMP JUMPDEST PUSH1 0x0 PUSH1 0x20 DUP3 ADD SWAP1 POP PUSH2 0x8EE PUSH1 0x0 DUP4 ADD DUP5 PUSH2 0x81A JUMP JUMPDEST SWAP3 SWAP2 POP POP JUMP JUMPDEST PUSH1 0x0 PUSH1 0x20 DUP3 ADD SWAP1 POP DUP2 DUP2 SUB PUSH1 0x0 DUP4 ADD MSTORE PUSH2 0x90D DUP2 PUSH2 0x829 JUMP JUMPDEST SWAP1 POP SWAP2 SWAP1 POP JUMP JUMPDEST PUSH1 0x0 PUSH1 0x20 DUP3 ADD SWAP1 POP DUP2 DUP2 SUB PUSH1 0x0 DUP4 ADD MSTORE PUSH2 0x92D DUP2 PUSH2 0x86F JUMP JUMPDEST SWAP1 POP SWAP2 SWAP1 POP JUMP JUMPDEST PUSH1 0x0 PUSH1 0x20 DUP3 ADD SWAP1 POP DUP2 DUP2 SUB PUSH1 0x0 DUP4 ADD MSTORE PUSH2 0x94D DUP2 PUSH2 0x892 JUMP JUMPDEST SWAP1 POP SWAP2 SWAP1 POP JUMP JUMPDEST PUSH1 0x0 PUSH1 0x20 DUP3 ADD SWAP1 POP PUSH2 0x969 PUSH1 0x0 DUP4 ADD DUP5 PUSH2 0x8B5 JUMP JUMPDEST SWAP3 SWAP2 POP POP JUMP JUMPDEST PUSH1 0x0 DUP2 SWAP1 POP SWAP3 SWAP2 POP POP JUMP JUMPDEST PUSH1 0x0 DUP3 DUP3 MSTORE PUSH1 0x20 DUP3 ADD SWAP1 POP SWAP3 SWAP2 POP POP JUMP JUMPDEST PUSH1 0x0 PUSH2 0x996 DUP3 PUSH2 0xBBF JUMP JUMPDEST SWAP2 POP PUSH2 0x9A1 DUP4 PUSH2 0xBBF JUMP JUMPDEST SWAP3 POP DUP3 PUSH32 0xFFFFFFFFFFFFFFFFFFFFFFFFFFFFFFFFFFFFFFFFFFFFFFFFFFFFFFFFFFFFFFFF SUB DUP3 GT ISZERO PUSH2 0x9D6 JUMPI PUSH2 0x9D5 PUSH2 0xC28 JUMP JUMPDEST JUMPDEST DUP3 DUP3 ADD SWAP1 POP SWAP3 SWAP2 POP POP JUMP JUMPDEST PUSH1 0x0 PUSH2 0x9EC DUP3 PUSH2 0xBBF JUMP JUMPDEST SWAP2 POP PUSH2 0x9F7 DUP4 PUSH2 0xBBF JUMP JUMPDEST SWAP3 POP DUP3 PUSH2 0xA07 JUMPI PUSH2 0xA06 PUSH2 0xC57 JUMP JUMPDEST JUMPDEST DUP3 DUP3 DIV SWAP1 POP SWAP3 SWAP2 POP POP JUMP JUMPDEST PUSH1 0x0 PUSH2 0xA1D DUP3 PUSH2 0xB95 JUMP JUMPDEST SWAP2 POP PUSH2 0xA28 DUP4 PUSH2 0xB95 JUMP JUMPDEST SWAP3 POP DUP3 PUSH32 0x7FFFFFFFFFFFFFFFFFFFFFFFFFFFFFFFFFFFFFFFFFFFFFFFFFFFFFFFFFFFFFFF DIV DUP3 GT PUSH1 0x0 DUP5 SGT PUSH1 0x0 DUP5 SGT AND AND ISZERO PUSH2 0xA67 JUMPI PUSH2 0xA66 PUSH2 0xC28 JUMP JUMPDEST JUMPDEST DUP2 PUSH32 0x8000000000000000000000000000000000000000000000000000000000000000 SDIV DUP4 SLT PUSH1 0x0 DUP5 SLT PUSH1 0x0 DUP5 SGT AND AND ISZERO PUSH2 0xAA4 JUMPI PUSH2 0xAA3 PUSH2 0xC28 JUMP JUMPDEST JUMPDEST DUP3 PUSH32 0x8000000000000000000000000000000000000000000000000000000000000000 SDIV DUP3 SLT PUSH1 0x0 DUP5 SGT PUSH1 0x0 DUP5 SLT AND AND ISZERO PUSH2 0xAE1 JUMPI PUSH2 0xAE0 PUSH2 0xC28 JUMP JUMPDEST JUMPDEST DUP3 PUSH32 0x7FFFFFFFFFFFFFFFFFFFFFFFFFFFFFFFFFFFFFFFFFFFFFFFFFFFFFFFFFFFFFFF SDIV DUP3 SLT PUSH1 0x0 DUP5 SLT PUSH1 0x0 DUP5 SLT AND AND ISZERO PUSH2 0xB1E JUMPI PUSH2 0xB1D PUSH2 0xC28 JUMP JUMPDEST JUMPDEST DUP3 DUP3 MUL SWAP1 POP SWAP3 SWAP2 POP POP JUMP JUMPDEST PUSH1 0x0 PUSH2 0xB34 DUP3 PUSH2 0xBBF JUMP JUMPDEST SWAP2 POP PUSH2 0xB3F DUP4 PUSH2 0xBBF JUMP JUMPDEST SWAP3 POP DUP2 PUSH32 0xFFFFFFFFFFFFFFFFFFFFFFFFFFFFFFFFFFFFFFFFFFFFFFFFFFFFFFFFFFFFFFFF DIV DUP4 GT DUP3 ISZERO ISZERO AND ISZERO PUSH2 0xB78 JUMPI PUSH2 0xB77 PUSH2 0xC28 JUMP JUMPDEST JUMPDEST DUP3 DUP3 MUL SWAP1 POP SWAP3 SWAP2 POP POP JUMP JUMPDEST PUSH1 0x0 PUSH2 0xB8E DUP3 PUSH2 0xB9F JUMP JUMPDEST SWAP1 POP SWAP2 SWAP1 POP JUMP JUMPDEST PUSH1 0x0 DUP2 SWAP1 POP SWAP2 SWAP1 POP JUMP JUMPDEST PUSH1 0x0 PUSH20 0xFFFFFFFFFFFFFFFFFFFFFFFFFFFFFFFFFFFFFFFF DUP3 AND SWAP1 POP SWAP2 SWAP1 POP JUMP JUMPDEST PUSH1 0x0 DUP2 SWAP1 POP SWAP2 SWAP1 POP JUMP JUMPDEST PUSH1 0x0 PUSH10 0xFFFFFFFFFFFFFFFFFFFF DUP3 AND SWAP1 POP SWAP2 SWAP1 POP JUMP JUMPDEST PUSH1 0x0 PUSH2 0xBEA DUP3 PUSH2 0xBBF JUMP JUMPDEST SWAP2 POP PUSH32 0xFFFFFFFFFFFFFFFFFFFFFFFFFFFFFFFFFFFFFFFFFFFFFFFFFFFFFFFFFFFFFFFF DUP3 EQ ISZERO PUSH2 0xC1D JUMPI PUSH2 0xC1C PUSH2 0xC28 JUMP JUMPDEST JUMPDEST PUSH1 0x1 DUP3 ADD SWAP1 POP SWAP2 SWAP1 POP JUMP JUMPDEST PUSH32 0x4E487B7100000000000000000000000000000000000000000000000000000000 PUSH1 0x0 MSTORE PUSH1 0x11 PUSH1 0x4 MSTORE PUSH1 0x24 PUSH1 0x0 REVERT JUMPDEST PUSH32 0x4E487B7100000000000000000000000000000000000000000000000000000000 PUSH1 0x0 MSTORE PUSH1 0x12 PUSH1 0x4 MSTORE PUSH1 0x24 PUSH1 0x0 REVERT JUMPDEST PUSH32 0x4E487B7100000000000000000000000000000000000000000000000000000000 PUSH1 0x0 MSTORE PUSH1 0x32 PUSH1 0x4 MSTORE PUSH1 0x24 PUSH1 0x0 REVERT JUMPDEST PUSH32 0x4E487B7100000000000000000000000000000000000000000000000000000000 PUSH1 0x0 MSTORE PUSH1 0x41 PUSH1 0x4 MSTORE PUSH1 0x24 PUSH1 0x0 REVERT JUMPDEST PUSH1 0x0 DUP1 REVERT JUMPDEST PUSH32 0x43616C6C206661696C6564000000000000000000000000000000000000000000 PUSH1 0x0 DUP3 ADD MSTORE POP JUMP JUMPDEST POP JUMP JUMPDEST PUSH32 0x4469646E27742073656E6420656E6F7567682100000000000000000000000000 PUSH1 0x0 DUP3 ADD MSTORE POP JUMP JUMPDEST PUSH32 0x53656E646572206973206E6F74206F776E657221000000000000000000000000 PUSH1 0x0 DUP3 ADD MSTORE POP JUMP JUMPDEST PUSH2 0xD70 DUP2 PUSH2 0xB83 JUMP JUMPDEST DUP2 EQ PUSH2 0xD7B JUMPI PUSH1 0x0 DUP1 REVERT JUMPDEST POP JUMP JUMPDEST PUSH2 0xD87 DUP2 PUSH2 0xB95 JUMP JUMPDEST DUP2 EQ PUSH2 0xD92 JUMPI PUSH1 0x0 DUP1 REVERT JUMPDEST POP JUMP JUMPDEST PUSH2 0xD9E DUP2 PUSH2 0xBBF JUMP JUMPDEST DUP2 EQ PUSH2 0xDA9 JUMPI PUSH1 0x0 DUP1 REVERT JUMPDEST POP JUMP JUMPDEST PUSH2 0xDB5 DUP2 PUSH2 0xBC9 JUMP JUMPDEST DUP2 EQ PUSH2 0xDC0 JUMPI PUSH1 0x0 DUP1 REVERT JUMPDEST POP JUMP INVALID LOG2 PUSH5 0x6970667358 0x22 SLT KECCAK256 0xE3 0xB1 0xF7 STOP 0x24 0xD STATICCALL BYTE SELFDESTRUCT 0x5F CALLVALUE STATICCALL DUP12 0x25 0xED 0xAA 0xD3 PUSH7 0xAA374B367EB489 0x28 0xD7 PUSH10 0x9D15892064736F6C6343 STOP ADDMOD SMOD STOP CALLER "
				},
				"gasEstimates": {
					"creation": {
						"codeDepositCost": "715400",
						"executionCost": "infinite",
						"totalCost": "infinite"
					},
					"external": {
						"": "infinite",
						"MINIMUM_USD()": "351",
						"addressToAmountFunded(address)": "2814",
						"fund()": "infinite",
						"funders(uint256)": "5044",
						"i_owner()": "infinite",
						"withdraw()": "infinite"
					}
				},
				"methodIdentifiers": {
					"MINIMUM_USD()": "6b69a592",
					"addressToAmountFunded(address)": "3e47d6f3",
					"fund()": "b60d4288",
					"funders(uint256)": "dc0d3dff",
					"i_owner()": "dba6335f",
					"withdraw()": "3ccfd60b"
				}
			},
			"storageLayout": {
				"storage": [
					{
						"astId": 59,
						"contract": "contracts/FundMe.sol:FundMe",
						"label": "funders",
						"offset": 0,
						"slot": "0",
						"type": "t_array(t_address)dyn_storage"
					},
					{
						"astId": 63,
						"contract": "contracts/FundMe.sol:FundMe",
						"label": "addressToAmountFunded",
						"offset": 0,
						"slot": "1",
						"type": "t_mapping(t_address,t_uint256)"
					}
				],
				"types": {
					"t_address": {
						"encoding": "inplace",
						"label": "address",
						"numberOfBytes": "20"
					},
					"t_array(t_address)dyn_storage": {
						"base": "t_address",
						"encoding": "dynamic_array",
						"label": "address[]",
						"numberOfBytes": "32"
					},
					"t_mapping(t_address,t_uint256)": {
						"encoding": "mapping",
						"key": "t_address",
						"label": "mapping(address => uint256)",
						"numberOfBytes": "32",
						"value": "t_uint256"
					},
					"t_uint256": {
						"encoding": "inplace",
						"label": "uint256",
						"numberOfBytes": "32"
					}
				}
			},
			"userdoc": {
				"kind": "user",
				"methods": {},
				"version": 1
			}
		}
	}
}