{
	"contracts/SimpleStorage.sol": {
		"SimpleProject": {
			"abi": [
				{
					"inputs": [],
					"name": "favoriteNumber",
					"outputs": [
						{
							"internalType": "uint256",
							"name": "",
							"type": "uint256"
						}
					],
					"stateMutability": "view",
					"type": "function"
				},
				{
					"inputs": [],
					"name": "person",
					"outputs": [
						{
							"internalType": "uint256",
							"name": "favoriteNumber",
							"type": "uint256"
						},
						{
							"internalType": "string",
							"name": "name",
							"type": "string"
						}
					],
					"stateMutability": "view",
					"type": "function"
				},
				{
					"inputs": [],
					"name": "retrieve",
					"outputs": [
						{
							"internalType": "uint256",
							"name": "",
							"type": "uint256"
						}
					],
					"stateMutability": "view",
					"type": "function"
				},
				{
					"inputs": [
						{
							"internalType": "uint256",
							"name": "_favoriteNumber",
							"type": "uint256"
						}
					],
					"name": "store",
					"outputs": [],
					"stateMutability": "nonpayable",
					"type": "function"
				}
			],
			"devdoc": {
				"kind": "dev",
				"methods": {},
				"version": 1
			},
			"evm": {
				"assembly": "    /* \"contracts/SimpleStorage.sol\":62:524  contract SimpleProject {\r... */\n  mstore(0x40, 0x80)\n    /* \"contracts/SimpleStorage.sol\":151:201  People({favoriteNumber: 2, name: \"Muhammadrasul\"}) */\n  mload(0x40)\n  dup1\n  0x40\n  add\n  0x40\n  mstore\n  dup1\n    /* \"contracts/SimpleStorage.sol\":175:176  2 */\n  0x02\n    /* \"contracts/SimpleStorage.sol\":151:201  People({favoriteNumber: 2, name: \"Muhammadrasul\"}) */\n  dup2\n  mstore\n  0x20\n  add\n  mload(0x40)\n  dup1\n  0x40\n  add\n  0x40\n  mstore\n  dup1\n  0x0d\n  dup2\n  mstore\n  0x20\n  add\n  0x4d7568616d6d6164726173756c00000000000000000000000000000000000000\n  dup2\n  mstore\n  pop\n  dup2\n  mstore\n  pop\n    /* \"contracts/SimpleStorage.sol\":128:201  People public person = People({favoriteNumber: 2, name: \"Muhammadrasul\"}) */\n  0x01\n  0x00\n  dup3\n  add\n  mload\n  dup2\n  0x00\n  add\n  sstore\n  0x20\n  dup3\n  add\n  mload\n  dup2\n  0x01\n  add\n  swap1\n  dup1\n  mload\n  swap1\n  0x20\n  add\n  swap1\n  tag_1\n  swap3\n  swap2\n  swap1\n  tag_2\n  jump\t// in\ntag_1:\n  pop\n  pop\n  pop\n    /* \"contracts/SimpleStorage.sol\":62:524  contract SimpleProject {\r... */\n  callvalue\n  dup1\n  iszero\n  tag_3\n  jumpi\n  0x00\n  dup1\n  revert\ntag_3:\n  pop\n  jump(tag_4)\ntag_2:\n  dup3\n  dup1\n  sload\n  tag_5\n  swap1\n  tag_6\n  jump\t// in\ntag_5:\n  swap1\n  0x00\n  mstore\n  keccak256(0x00, 0x20)\n  swap1\n  0x1f\n  add\n  0x20\n  swap1\n  div\n  dup2\n  add\n  swap3\n  dup3\n  tag_8\n  jumpi\n  0x00\n  dup6\n  sstore\n  jump(tag_7)\ntag_8:\n  dup3\n  0x1f\n  lt\n  tag_9\n  jumpi\n  dup1\n  mload\n  not(0xff)\n  and\n  dup4\n  dup1\n  add\n  or\n  dup6\n  sstore\n  jump(tag_7)\ntag_9:\n  dup3\n  dup1\n  add\n  0x01\n  add\n  dup6\n  sstore\n  dup3\n  iszero\n  tag_7\n  jumpi\n  swap2\n  dup3\n  add\ntag_10:\n  dup3\n  dup2\n  gt\n  iszero\n  tag_11\n  jumpi\n  dup3\n  mload\n  dup3\n  sstore\n  swap2\n  0x20\n  add\n  swap2\n  swap1\n  0x01\n  add\n  swap1\n  jump(tag_10)\ntag_11:\ntag_7:\n  pop\n  swap1\n  pop\n  tag_12\n  swap2\n  swap1\n  tag_13\n  jump\t// in\ntag_12:\n  pop\n  swap1\n  jump\t// out\ntag_13:\ntag_14:\n  dup1\n  dup3\n  gt\n  iszero\n  tag_15\n  jumpi\n  0x00\n  dup2\n  0x00\n  swap1\n  sstore\n  pop\n  0x01\n  add\n  jump(tag_14)\ntag_15:\n  pop\n  swap1\n  jump\t// out\n    /* \"#utility.yul\":7:327   */\ntag_6:\n    /* \"#utility.yul\":51:57   */\n  0x00\n    /* \"#utility.yul\":88:89   */\n  0x02\n    /* \"#utility.yul\":82:86   */\n  dup3\n    /* \"#utility.yul\":78:90   */\n  div\n    /* \"#utility.yul\":68:90   */\n  swap1\n  pop\n    /* \"#utility.yul\":135:136   */\n  0x01\n    /* \"#utility.yul\":129:133   */\n  dup3\n    /* \"#utility.yul\":125:137   */\n  and\n    /* \"#utility.yul\":156:174   */\n  dup1\n    /* \"#utility.yul\":146:227   */\n  tag_18\n  jumpi\n    /* \"#utility.yul\":212:216   */\n  0x7f\n    /* \"#utility.yul\":204:210   */\n  dup3\n    /* \"#utility.yul\":200:217   */\n  and\n    /* \"#utility.yul\":190:217   */\n  swap2\n  pop\n    /* \"#utility.yul\":146:227   */\ntag_18:\n    /* \"#utility.yul\":274:276   */\n  0x20\n    /* \"#utility.yul\":266:272   */\n  dup3\n    /* \"#utility.yul\":263:277   */\n  lt\n    /* \"#utility.yul\":243:261   */\n  dup2\n    /* \"#utility.yul\":240:278   */\n  eq\n    /* \"#utility.yul\":237:321   */\n  iszero\n  tag_19\n  jumpi\n    /* \"#utility.yul\":293:311   */\n  tag_20\n  tag_21\n  jump\t// in\ntag_20:\n    /* \"#utility.yul\":237:321   */\ntag_19:\n    /* \"#utility.yul\":58:327   */\n  pop\n    /* \"#utility.yul\":7:327   */\n  swap2\n  swap1\n  pop\n  jump\t// out\n    /* \"#utility.yul\":333:513   */\ntag_21:\n    /* \"#utility.yul\":381:458   */\n  0x4e487b7100000000000000000000000000000000000000000000000000000000\n    /* \"#utility.yul\":378:379   */\n  0x00\n    /* \"#utility.yul\":371:459   */\n  mstore\n    /* \"#utility.yul\":478:482   */\n  0x22\n    /* \"#utility.yul\":475:476   */\n  0x04\n    /* \"#utility.yul\":468:483   */\n  mstore\n    /* \"#utility.yul\":502:506   */\n  0x24\n    /* \"#utility.yul\":499:500   */\n  0x00\n    /* \"#utility.yul\":492:507   */\n  revert\n    /* \"contracts/SimpleStorage.sol\":62:524  contract SimpleProject {\r... */\ntag_4:\n  dataSize(sub_0)\n  dup1\n  dataOffset(sub_0)\n  0x00\n  codecopy\n  0x00\n  return\nstop\n\nsub_0: assembly {\n        /* \"contracts/SimpleStorage.sol\":62:524  contract SimpleProject {\r... */\n      mstore(0x40, 0x80)\n      callvalue\n      dup1\n      iszero\n      tag_1\n      jumpi\n      0x00\n      dup1\n      revert\n    tag_1:\n      pop\n      jumpi(tag_2, lt(calldatasize, 0x04))\n      shr(0xe0, calldataload(0x00))\n      dup1\n      0x2e64cec1\n      eq\n      tag_3\n      jumpi\n      dup1\n      0x471f7cdf\n      eq\n      tag_4\n      jumpi\n      dup1\n      0x6057361d\n      eq\n      tag_5\n      jumpi\n      dup1\n      0x77ec2b55\n      eq\n      tag_6\n      jumpi\n    tag_2:\n      0x00\n      dup1\n      revert\n        /* \"contracts/SimpleStorage.sol\":434:521  function retrieve() public view returns(uint256) {\r... */\n    tag_3:\n      tag_7\n      tag_8\n      jump\t// in\n    tag_7:\n      mload(0x40)\n      tag_9\n      swap2\n      swap1\n      tag_10\n      jump\t// in\n    tag_9:\n      mload(0x40)\n      dup1\n      swap2\n      sub\n      swap1\n      return\n        /* \"contracts/SimpleStorage.sol\":91:120  uint256 public favoriteNumber */\n    tag_4:\n      tag_11\n      tag_12\n      jump\t// in\n    tag_11:\n      mload(0x40)\n      tag_13\n      swap2\n      swap1\n      tag_10\n      jump\t// in\n    tag_13:\n      mload(0x40)\n      dup1\n      swap2\n      sub\n      swap1\n      return\n        /* \"contracts/SimpleStorage.sol\":290:410  function store(uint256 _favoriteNumber) public  {\r... */\n    tag_5:\n      tag_14\n      0x04\n      dup1\n      calldatasize\n      sub\n      dup2\n      add\n      swap1\n      tag_15\n      swap2\n      swap1\n      tag_16\n      jump\t// in\n    tag_15:\n      tag_17\n      jump\t// in\n    tag_14:\n      stop\n        /* \"contracts/SimpleStorage.sol\":128:201  People public person = People({favoriteNumber: 2, name: \"Muhammadrasul\"}) */\n    tag_6:\n      tag_18\n      tag_19\n      jump\t// in\n    tag_18:\n      mload(0x40)\n      tag_20\n      swap3\n      swap2\n      swap1\n      tag_21\n      jump\t// in\n    tag_20:\n      mload(0x40)\n      dup1\n      swap2\n      sub\n      swap1\n      return\n        /* \"contracts/SimpleStorage.sol\":434:521  function retrieve() public view returns(uint256) {\r... */\n    tag_8:\n        /* \"contracts/SimpleStorage.sol\":474:481  uint256 */\n      0x00\n        /* \"contracts/SimpleStorage.sol\":500:514  favoriteNumber */\n      dup1\n      sload\n        /* \"contracts/SimpleStorage.sol\":493:514  return favoriteNumber */\n      swap1\n      pop\n        /* \"contracts/SimpleStorage.sol\":434:521  function retrieve() public view returns(uint256) {\r... */\n      swap1\n      jump\t// out\n        /* \"contracts/SimpleStorage.sol\":91:120  uint256 public favoriteNumber */\n    tag_12:\n      sload(0x00)\n      dup2\n      jump\t// out\n        /* \"contracts/SimpleStorage.sol\":290:410  function store(uint256 _favoriteNumber) public  {\r... */\n    tag_17:\n        /* \"contracts/SimpleStorage.sol\":365:380  _favoriteNumber */\n      dup1\n        /* \"contracts/SimpleStorage.sol\":348:362  favoriteNumber */\n      0x00\n        /* \"contracts/SimpleStorage.sol\":348:380  favoriteNumber = _favoriteNumber */\n      dup2\n      swap1\n      sstore\n      pop\n        /* \"contracts/SimpleStorage.sol\":290:410  function store(uint256 _favoriteNumber) public  {\r... */\n      pop\n      jump\t// out\n        /* \"contracts/SimpleStorage.sol\":128:201  People public person = People({favoriteNumber: 2, name: \"Muhammadrasul\"}) */\n    tag_19:\n      0x01\n      dup1\n      0x00\n      add\n      sload\n      swap1\n      dup1\n      0x01\n      add\n      dup1\n      sload\n      tag_24\n      swap1\n      tag_25\n      jump\t// in\n    tag_24:\n      dup1\n      0x1f\n      add\n      0x20\n      dup1\n      swap2\n      div\n      mul\n      0x20\n      add\n      mload(0x40)\n      swap1\n      dup2\n      add\n      0x40\n      mstore\n      dup1\n      swap3\n      swap2\n      swap1\n      dup2\n      dup2\n      mstore\n      0x20\n      add\n      dup3\n      dup1\n      sload\n      tag_26\n      swap1\n      tag_25\n      jump\t// in\n    tag_26:\n      dup1\n      iszero\n      tag_27\n      jumpi\n      dup1\n      0x1f\n      lt\n      tag_28\n      jumpi\n      0x0100\n      dup1\n      dup4\n      sload\n      div\n      mul\n      dup4\n      mstore\n      swap2\n      0x20\n      add\n      swap2\n      jump(tag_27)\n    tag_28:\n      dup3\n      add\n      swap2\n      swap1\n      0x00\n      mstore\n      keccak256(0x00, 0x20)\n      swap1\n    tag_29:\n      dup2\n      sload\n      dup2\n      mstore\n      swap1\n      0x01\n      add\n      swap1\n      0x20\n      add\n      dup1\n      dup4\n      gt\n      tag_29\n      jumpi\n      dup3\n      swap1\n      sub\n      0x1f\n      and\n      dup3\n      add\n      swap2\n    tag_27:\n      pop\n      pop\n      pop\n      pop\n      pop\n      swap1\n      pop\n      dup3\n      jump\t// out\n        /* \"#utility.yul\":7:146   */\n    tag_31:\n        /* \"#utility.yul\":53:58   */\n      0x00\n        /* \"#utility.yul\":91:97   */\n      dup2\n        /* \"#utility.yul\":78:98   */\n      calldataload\n        /* \"#utility.yul\":69:98   */\n      swap1\n      pop\n        /* \"#utility.yul\":107:140   */\n      tag_33\n        /* \"#utility.yul\":134:139   */\n      dup2\n        /* \"#utility.yul\":107:140   */\n      tag_34\n      jump\t// in\n    tag_33:\n        /* \"#utility.yul\":7:146   */\n      swap3\n      swap2\n      pop\n      pop\n      jump\t// out\n        /* \"#utility.yul\":152:481   */\n    tag_16:\n        /* \"#utility.yul\":211:217   */\n      0x00\n        /* \"#utility.yul\":260:262   */\n      0x20\n        /* \"#utility.yul\":248:257   */\n      dup3\n        /* \"#utility.yul\":239:246   */\n      dup5\n        /* \"#utility.yul\":235:258   */\n      sub\n        /* \"#utility.yul\":231:263   */\n      slt\n        /* \"#utility.yul\":228:347   */\n      iszero\n      tag_36\n      jumpi\n        /* \"#utility.yul\":266:345   */\n      tag_37\n      tag_38\n      jump\t// in\n    tag_37:\n        /* \"#utility.yul\":228:347   */\n    tag_36:\n        /* \"#utility.yul\":386:387   */\n      0x00\n        /* \"#utility.yul\":411:464   */\n      tag_39\n        /* \"#utility.yul\":456:463   */\n      dup5\n        /* \"#utility.yul\":447:453   */\n      dup3\n        /* \"#utility.yul\":436:445   */\n      dup6\n        /* \"#utility.yul\":432:454   */\n      add\n        /* \"#utility.yul\":411:464   */\n      tag_31\n      jump\t// in\n    tag_39:\n        /* \"#utility.yul\":401:464   */\n      swap2\n      pop\n        /* \"#utility.yul\":357:474   */\n      pop\n        /* \"#utility.yul\":152:481   */\n      swap3\n      swap2\n      pop\n      pop\n      jump\t// out\n        /* \"#utility.yul\":487:851   */\n    tag_40:\n        /* \"#utility.yul\":575:578   */\n      0x00\n        /* \"#utility.yul\":603:642   */\n      tag_42\n        /* \"#utility.yul\":636:641   */\n      dup3\n        /* \"#utility.yul\":603:642   */\n      tag_43\n      jump\t// in\n    tag_42:\n        /* \"#utility.yul\":658:729   */\n      tag_44\n        /* \"#utility.yul\":722:728   */\n      dup2\n        /* \"#utility.yul\":717:720   */\n      dup6\n        /* \"#utility.yul\":658:729   */\n      tag_45\n      jump\t// in\n    tag_44:\n        /* \"#utility.yul\":651:729   */\n      swap4\n      pop\n        /* \"#utility.yul\":738:790   */\n      tag_46\n        /* \"#utility.yul\":783:789   */\n      dup2\n        /* \"#utility.yul\":778:781   */\n      dup6\n        /* \"#utility.yul\":771:775   */\n      0x20\n        /* \"#utility.yul\":764:769   */\n      dup7\n        /* \"#utility.yul\":760:776   */\n      add\n        /* \"#utility.yul\":738:790   */\n      tag_47\n      jump\t// in\n    tag_46:\n        /* \"#utility.yul\":815:844   */\n      tag_48\n        /* \"#utility.yul\":837:843   */\n      dup2\n        /* \"#utility.yul\":815:844   */\n      tag_49\n      jump\t// in\n    tag_48:\n        /* \"#utility.yul\":810:813   */\n      dup5\n        /* \"#utility.yul\":806:845   */\n      add\n        /* \"#utility.yul\":799:845   */\n      swap2\n      pop\n        /* \"#utility.yul\":579:851   */\n      pop\n        /* \"#utility.yul\":487:851   */\n      swap3\n      swap2\n      pop\n      pop\n      jump\t// out\n        /* \"#utility.yul\":857:975   */\n    tag_50:\n        /* \"#utility.yul\":944:968   */\n      tag_52\n        /* \"#utility.yul\":962:967   */\n      dup2\n        /* \"#utility.yul\":944:968   */\n      tag_53\n      jump\t// in\n    tag_52:\n        /* \"#utility.yul\":939:942   */\n      dup3\n        /* \"#utility.yul\":932:969   */\n      mstore\n        /* \"#utility.yul\":857:975   */\n      pop\n      pop\n      jump\t// out\n        /* \"#utility.yul\":981:1203   */\n    tag_10:\n        /* \"#utility.yul\":1074:1078   */\n      0x00\n        /* \"#utility.yul\":1112:1114   */\n      0x20\n        /* \"#utility.yul\":1101:1110   */\n      dup3\n        /* \"#utility.yul\":1097:1115   */\n      add\n        /* \"#utility.yul\":1089:1115   */\n      swap1\n      pop\n        /* \"#utility.yul\":1125:1196   */\n      tag_55\n        /* \"#utility.yul\":1193:1194   */\n      0x00\n        /* \"#utility.yul\":1182:1191   */\n      dup4\n        /* \"#utility.yul\":1178:1195   */\n      add\n        /* \"#utility.yul\":1169:1175   */\n      dup5\n        /* \"#utility.yul\":1125:1196   */\n      tag_50\n      jump\t// in\n    tag_55:\n        /* \"#utility.yul\":981:1203   */\n      swap3\n      swap2\n      pop\n      pop\n      jump\t// out\n        /* \"#utility.yul\":1209:1632   */\n    tag_21:\n        /* \"#utility.yul\":1350:1354   */\n      0x00\n        /* \"#utility.yul\":1388:1390   */\n      0x40\n        /* \"#utility.yul\":1377:1386   */\n      dup3\n        /* \"#utility.yul\":1373:1391   */\n      add\n        /* \"#utility.yul\":1365:1391   */\n      swap1\n      pop\n        /* \"#utility.yul\":1401:1472   */\n      tag_57\n        /* \"#utility.yul\":1469:1470   */\n      0x00\n        /* \"#utility.yul\":1458:1467   */\n      dup4\n        /* \"#utility.yul\":1454:1471   */\n      add\n        /* \"#utility.yul\":1445:1451   */\n      dup6\n        /* \"#utility.yul\":1401:1472   */\n      tag_50\n      jump\t// in\n    tag_57:\n        /* \"#utility.yul\":1519:1528   */\n      dup2\n        /* \"#utility.yul\":1513:1517   */\n      dup2\n        /* \"#utility.yul\":1509:1529   */\n      sub\n        /* \"#utility.yul\":1504:1506   */\n      0x20\n        /* \"#utility.yul\":1493:1502   */\n      dup4\n        /* \"#utility.yul\":1489:1507   */\n      add\n        /* \"#utility.yul\":1482:1530   */\n      mstore\n        /* \"#utility.yul\":1547:1625   */\n      tag_58\n        /* \"#utility.yul\":1620:1624   */\n      dup2\n        /* \"#utility.yul\":1611:1617   */\n      dup5\n        /* \"#utility.yul\":1547:1625   */\n      tag_40\n      jump\t// in\n    tag_58:\n        /* \"#utility.yul\":1539:1625   */\n      swap1\n      pop\n        /* \"#utility.yul\":1209:1632   */\n      swap4\n      swap3\n      pop\n      pop\n      pop\n      jump\t// out\n        /* \"#utility.yul\":1719:1818   */\n    tag_43:\n        /* \"#utility.yul\":1771:1777   */\n      0x00\n        /* \"#utility.yul\":1805:1810   */\n      dup2\n        /* \"#utility.yul\":1799:1811   */\n      mload\n        /* \"#utility.yul\":1789:1811   */\n      swap1\n      pop\n        /* \"#utility.yul\":1719:1818   */\n      swap2\n      swap1\n      pop\n      jump\t// out\n        /* \"#utility.yul\":1824:1993   */\n    tag_45:\n        /* \"#utility.yul\":1908:1919   */\n      0x00\n        /* \"#utility.yul\":1942:1948   */\n      dup3\n        /* \"#utility.yul\":1937:1940   */\n      dup3\n        /* \"#utility.yul\":1930:1949   */\n      mstore\n        /* \"#utility.yul\":1982:1986   */\n      0x20\n        /* \"#utility.yul\":1977:1980   */\n      dup3\n        /* \"#utility.yul\":1973:1987   */\n      add\n        /* \"#utility.yul\":1958:1987   */\n      swap1\n      pop\n        /* \"#utility.yul\":1824:1993   */\n      swap3\n      swap2\n      pop\n      pop\n      jump\t// out\n        /* \"#utility.yul\":1999:2076   */\n    tag_53:\n        /* \"#utility.yul\":2036:2043   */\n      0x00\n        /* \"#utility.yul\":2065:2070   */\n      dup2\n        /* \"#utility.yul\":2054:2070   */\n      swap1\n      pop\n        /* \"#utility.yul\":1999:2076   */\n      swap2\n      swap1\n      pop\n      jump\t// out\n        /* \"#utility.yul\":2082:2389   */\n    tag_47:\n        /* \"#utility.yul\":2150:2151   */\n      0x00\n        /* \"#utility.yul\":2160:2273   */\n    tag_65:\n        /* \"#utility.yul\":2174:2180   */\n      dup4\n        /* \"#utility.yul\":2171:2172   */\n      dup2\n        /* \"#utility.yul\":2168:2181   */\n      lt\n        /* \"#utility.yul\":2160:2273   */\n      iszero\n      tag_67\n      jumpi\n        /* \"#utility.yul\":2259:2260   */\n      dup1\n        /* \"#utility.yul\":2254:2257   */\n      dup3\n        /* \"#utility.yul\":2250:2261   */\n      add\n        /* \"#utility.yul\":2244:2262   */\n      mload\n        /* \"#utility.yul\":2240:2241   */\n      dup2\n        /* \"#utility.yul\":2235:2238   */\n      dup5\n        /* \"#utility.yul\":2231:2242   */\n      add\n        /* \"#utility.yul\":2224:2263   */\n      mstore\n        /* \"#utility.yul\":2196:2198   */\n      0x20\n        /* \"#utility.yul\":2193:2194   */\n      dup2\n        /* \"#utility.yul\":2189:2199   */\n      add\n        /* \"#utility.yul\":2184:2199   */\n      swap1\n      pop\n        /* \"#utility.yul\":2160:2273   */\n      jump(tag_65)\n    tag_67:\n        /* \"#utility.yul\":2291:2297   */\n      dup4\n        /* \"#utility.yul\":2288:2289   */\n      dup2\n        /* \"#utility.yul\":2285:2298   */\n      gt\n        /* \"#utility.yul\":2282:2383   */\n      iszero\n      tag_68\n      jumpi\n        /* \"#utility.yul\":2371:2372   */\n      0x00\n        /* \"#utility.yul\":2362:2368   */\n      dup5\n        /* \"#utility.yul\":2357:2360   */\n      dup5\n        /* \"#utility.yul\":2353:2369   */\n      add\n        /* \"#utility.yul\":2346:2373   */\n      mstore\n        /* \"#utility.yul\":2282:2383   */\n    tag_68:\n        /* \"#utility.yul\":2131:2389   */\n      pop\n        /* \"#utility.yul\":2082:2389   */\n      pop\n      pop\n      pop\n      jump\t// out\n        /* \"#utility.yul\":2395:2715   */\n    tag_25:\n        /* \"#utility.yul\":2439:2445   */\n      0x00\n        /* \"#utility.yul\":2476:2477   */\n      0x02\n        /* \"#utility.yul\":2470:2474   */\n      dup3\n        /* \"#utility.yul\":2466:2478   */\n      div\n        /* \"#utility.yul\":2456:2478   */\n      swap1\n      pop\n        /* \"#utility.yul\":2523:2524   */\n      0x01\n        /* \"#utility.yul\":2517:2521   */\n      dup3\n        /* \"#utility.yul\":2513:2525   */\n      and\n        /* \"#utility.yul\":2544:2562   */\n      dup1\n        /* \"#utility.yul\":2534:2615   */\n      tag_70\n      jumpi\n        /* \"#utility.yul\":2600:2604   */\n      0x7f\n        /* \"#utility.yul\":2592:2598   */\n      dup3\n        /* \"#utility.yul\":2588:2605   */\n      and\n        /* \"#utility.yul\":2578:2605   */\n      swap2\n      pop\n        /* \"#utility.yul\":2534:2615   */\n    tag_70:\n        /* \"#utility.yul\":2662:2664   */\n      0x20\n        /* \"#utility.yul\":2654:2660   */\n      dup3\n        /* \"#utility.yul\":2651:2665   */\n      lt\n        /* \"#utility.yul\":2631:2649   */\n      dup2\n        /* \"#utility.yul\":2628:2666   */\n      eq\n        /* \"#utility.yul\":2625:2709   */\n      iszero\n      tag_71\n      jumpi\n        /* \"#utility.yul\":2681:2699   */\n      tag_72\n      tag_73\n      jump\t// in\n    tag_72:\n        /* \"#utility.yul\":2625:2709   */\n    tag_71:\n        /* \"#utility.yul\":2446:2715   */\n      pop\n        /* \"#utility.yul\":2395:2715   */\n      swap2\n      swap1\n      pop\n      jump\t// out\n        /* \"#utility.yul\":2721:2901   */\n    tag_73:\n        /* \"#utility.yul\":2769:2846   */\n      0x4e487b7100000000000000000000000000000000000000000000000000000000\n        /* \"#utility.yul\":2766:2767   */\n      0x00\n        /* \"#utility.yul\":2759:2847   */\n      mstore\n        /* \"#utility.yul\":2866:2870   */\n      0x22\n        /* \"#utility.yul\":2863:2864   */\n      0x04\n        /* \"#utility.yul\":2856:2871   */\n      mstore\n        /* \"#utility.yul\":2890:2894   */\n      0x24\n        /* \"#utility.yul\":2887:2888   */\n      0x00\n        /* \"#utility.yul\":2880:2895   */\n      revert\n        /* \"#utility.yul\":3030:3147   */\n    tag_38:\n        /* \"#utility.yul\":3139:3140   */\n      0x00\n        /* \"#utility.yul\":3136:3137   */\n      dup1\n        /* \"#utility.yul\":3129:3141   */\n      revert\n        /* \"#utility.yul\":3153:3255   */\n    tag_49:\n        /* \"#utility.yul\":3194:3200   */\n      0x00\n        /* \"#utility.yul\":3245:3247   */\n      0x1f\n        /* \"#utility.yul\":3241:3248   */\n      not\n        /* \"#utility.yul\":3236:3238   */\n      0x1f\n        /* \"#utility.yul\":3229:3234   */\n      dup4\n        /* \"#utility.yul\":3225:3239   */\n      add\n        /* \"#utility.yul\":3221:3249   */\n      and\n        /* \"#utility.yul\":3211:3249   */\n      swap1\n      pop\n        /* \"#utility.yul\":3153:3255   */\n      swap2\n      swap1\n      pop\n      jump\t// out\n        /* \"#utility.yul\":3261:3383   */\n    tag_34:\n        /* \"#utility.yul\":3334:3358   */\n      tag_80\n        /* \"#utility.yul\":3352:3357   */\n      dup2\n        /* \"#utility.yul\":3334:3358   */\n      tag_53\n      jump\t// in\n    tag_80:\n        /* \"#utility.yul\":3327:3332   */\n      dup2\n        /* \"#utility.yul\":3324:3359   */\n      eq\n        /* \"#utility.yul\":3314:3377   */\n      tag_81\n      jumpi\n        /* \"#utility.yul\":3373:3374   */\n      0x00\n        /* \"#utility.yul\":3370:3371   */\n      dup1\n        /* \"#utility.yul\":3363:3375   */\n      revert\n        /* \"#utility.yul\":3314:3377   */\n    tag_81:\n        /* \"#utility.yul\":3261:3383   */\n      pop\n      jump\t// out\n\n    auxdata: 0xa2646970667358221220c5a33903e81e711aa1f0a241928753335b8879bebe75c990cf638662567eda3464736f6c63430008070033\n}\n",
				"bytecode": {
					"linkReferences": {},
					"object": "60806040526040518060400160405280600281526020016040518060400160405280600d81526020017f4d7568616d6d6164726173756c00000000000000000000000000000000000000815250815250600160008201518160000155602082015181600101908051906020019061007792919061008c565b50505034801561008657600080fd5b50610190565b8280546100989061012f565b90600052602060002090601f0160209004810192826100ba5760008555610101565b82601f106100d357805160ff1916838001178555610101565b82800160010185558215610101579182015b828111156101005782518255916020019190600101906100e5565b5b50905061010e9190610112565b5090565b5b8082111561012b576000816000905550600101610113565b5090565b6000600282049050600182168061014757607f821691505b6020821081141561015b5761015a610161565b5b50919050565b7f4e487b7100000000000000000000000000000000000000000000000000000000600052602260045260246000fd5b61036d8061019f6000396000f3fe608060405234801561001057600080fd5b506004361061004c5760003560e01c80632e64cec114610051578063471f7cdf1461006f5780636057361d1461008d57806377ec2b55146100a9575b600080fd5b6100596100c8565b6040516100669190610205565b60405180910390f35b6100776100d1565b6040516100849190610205565b60405180910390f35b6100a760048036038101906100a29190610190565b6100d7565b005b6100b16100e1565b6040516100bf929190610220565b60405180910390f35b60008054905090565b60005481565b8060008190555050565b60018060000154908060010180546100f8906102a9565b80601f0160208091040260200160405190810160405280929190818152602001828054610124906102a9565b80156101715780601f1061014657610100808354040283529160200191610171565b820191906000526020600020905b81548152906001019060200180831161015457829003601f168201915b5050505050905082565b60008135905061018a81610320565b92915050565b6000602082840312156101a6576101a561030a565b5b60006101b48482850161017b565b91505092915050565b60006101c882610250565b6101d2818561025b565b93506101e2818560208601610276565b6101eb8161030f565b840191505092915050565b6101ff8161026c565b82525050565b600060208201905061021a60008301846101f6565b92915050565b600060408201905061023560008301856101f6565b818103602083015261024781846101bd565b90509392505050565b600081519050919050565b600082825260208201905092915050565b6000819050919050565b60005b83811015610294578082015181840152602081019050610279565b838111156102a3576000848401525b50505050565b600060028204905060018216806102c157607f821691505b602082108114156102d5576102d46102db565b5b50919050565b7f4e487b7100000000000000000000000000000000000000000000000000000000600052602260045260246000fd5b600080fd5b6000601f19601f8301169050919050565b6103298161026c565b811461033457600080fd5b5056fea2646970667358221220c5a33903e81e711aa1f0a241928753335b8879bebe75c990cf638662567eda3464736f6c63430008070033",
					"opcodes": "PUSH1 0x80 PUSH1 0x40 MSTORE PUSH1 0x40 MLOAD DUP1 PUSH1 0x40 ADD PUSH1 0x40 MSTORE DUP1 PUSH1 0x2 DUP2 MSTORE PUSH1 0x20 ADD PUSH1 0x40 MLOAD DUP1 PUSH1 0x40 ADD PUSH1 0x40 MSTORE DUP1 PUSH1 0xD DUP2 MSTORE PUSH1 0x20 ADD PUSH32 0x4D7568616D6D6164726173756C00000000000000000000000000000000000000 DUP2 MSTORE POP DUP2 MSTORE POP PUSH1 0x1 PUSH1 0x0 DUP3 ADD MLOAD DUP2 PUSH1 0x0 ADD SSTORE PUSH1 0x20 DUP3 ADD MLOAD DUP2 PUSH1 0x1 ADD SWAP1 DUP1 MLOAD SWAP1 PUSH1 0x20 ADD SWAP1 PUSH2 0x77 SWAP3 SWAP2 SWAP1 PUSH2 0x8C JUMP JUMPDEST POP POP POP CALLVALUE DUP1 ISZERO PUSH2 0x86 JUMPI PUSH1 0x0 DUP1 REVERT JUMPDEST POP PUSH2 0x190 JUMP JUMPDEST DUP3 DUP1 SLOAD PUSH2 0x98 SWAP1 PUSH2 0x12F JUMP JUMPDEST SWAP1 PUSH1 0x0 MSTORE PUSH1 0x20 PUSH1 0x0 KECCAK256 SWAP1 PUSH1 0x1F ADD PUSH1 0x20 SWAP1 DIV DUP2 ADD SWAP3 DUP3 PUSH2 0xBA JUMPI PUSH1 0x0 DUP6 SSTORE PUSH2 0x101 JUMP JUMPDEST DUP3 PUSH1 0x1F LT PUSH2 0xD3 JUMPI DUP1 MLOAD PUSH1 0xFF NOT AND DUP4 DUP1 ADD OR DUP6 SSTORE PUSH2 0x101 JUMP JUMPDEST DUP3 DUP1 ADD PUSH1 0x1 ADD DUP6 SSTORE DUP3 ISZERO PUSH2 0x101 JUMPI SWAP2 DUP3 ADD JUMPDEST DUP3 DUP2 GT ISZERO PUSH2 0x100 JUMPI DUP3 MLOAD DUP3 SSTORE SWAP2 PUSH1 0x20 ADD SWAP2 SWAP1 PUSH1 0x1 ADD SWAP1 PUSH2 0xE5 JUMP JUMPDEST JUMPDEST POP SWAP1 POP PUSH2 0x10E SWAP2 SWAP1 PUSH2 0x112 JUMP JUMPDEST POP SWAP1 JUMP JUMPDEST JUMPDEST DUP1 DUP3 GT ISZERO PUSH2 0x12B JUMPI PUSH1 0x0 DUP2 PUSH1 0x0 SWAP1 SSTORE POP PUSH1 0x1 ADD PUSH2 0x113 JUMP JUMPDEST POP SWAP1 JUMP JUMPDEST PUSH1 0x0 PUSH1 0x2 DUP3 DIV SWAP1 POP PUSH1 0x1 DUP3 AND DUP1 PUSH2 0x147 JUMPI PUSH1 0x7F DUP3 AND SWAP2 POP JUMPDEST PUSH1 0x20 DUP3 LT DUP2 EQ ISZERO PUSH2 0x15B JUMPI PUSH2 0x15A PUSH2 0x161 JUMP JUMPDEST JUMPDEST POP SWAP2 SWAP1 POP JUMP JUMPDEST PUSH32 0x4E487B7100000000000000000000000000000000000000000000000000000000 PUSH1 0x0 MSTORE PUSH1 0x22 PUSH1 0x4 MSTORE PUSH1 0x24 PUSH1 0x0 REVERT JUMPDEST PUSH2 0x36D DUP1 PUSH2 0x19F PUSH1 0x0 CODECOPY PUSH1 0x0 RETURN INVALID PUSH1 0x80 PUSH1 0x40 MSTORE CALLVALUE DUP1 ISZERO PUSH2 0x10 JUMPI PUSH1 0x0 DUP1 REVERT JUMPDEST POP PUSH1 0x4 CALLDATASIZE LT PUSH2 0x4C JUMPI PUSH1 0x0 CALLDATALOAD PUSH1 0xE0 SHR DUP1 PUSH4 0x2E64CEC1 EQ PUSH2 0x51 JUMPI DUP1 PUSH4 0x471F7CDF EQ PUSH2 0x6F JUMPI DUP1 PUSH4 0x6057361D EQ PUSH2 0x8D JUMPI DUP1 PUSH4 0x77EC2B55 EQ PUSH2 0xA9 JUMPI JUMPDEST PUSH1 0x0 DUP1 REVERT JUMPDEST PUSH2 0x59 PUSH2 0xC8 JUMP JUMPDEST PUSH1 0x40 MLOAD PUSH2 0x66 SWAP2 SWAP1 PUSH2 0x205 JUMP JUMPDEST PUSH1 0x40 MLOAD DUP1 SWAP2 SUB SWAP1 RETURN JUMPDEST PUSH2 0x77 PUSH2 0xD1 JUMP JUMPDEST PUSH1 0x40 MLOAD PUSH2 0x84 SWAP2 SWAP1 PUSH2 0x205 JUMP JUMPDEST PUSH1 0x40 MLOAD DUP1 SWAP2 SUB SWAP1 RETURN JUMPDEST PUSH2 0xA7 PUSH1 0x4 DUP1 CALLDATASIZE SUB DUP2 ADD SWAP1 PUSH2 0xA2 SWAP2 SWAP1 PUSH2 0x190 JUMP JUMPDEST PUSH2 0xD7 JUMP JUMPDEST STOP JUMPDEST PUSH2 0xB1 PUSH2 0xE1 JUMP JUMPDEST PUSH1 0x40 MLOAD PUSH2 0xBF SWAP3 SWAP2 SWAP1 PUSH2 0x220 JUMP JUMPDEST PUSH1 0x40 MLOAD DUP1 SWAP2 SUB SWAP1 RETURN JUMPDEST PUSH1 0x0 DUP1 SLOAD SWAP1 POP SWAP1 JUMP JUMPDEST PUSH1 0x0 SLOAD DUP2 JUMP JUMPDEST DUP1 PUSH1 0x0 DUP2 SWAP1 SSTORE POP POP JUMP JUMPDEST PUSH1 0x1 DUP1 PUSH1 0x0 ADD SLOAD SWAP1 DUP1 PUSH1 0x1 ADD DUP1 SLOAD PUSH2 0xF8 SWAP1 PUSH2 0x2A9 JUMP JUMPDEST DUP1 PUSH1 0x1F ADD PUSH1 0x20 DUP1 SWAP2 DIV MUL PUSH1 0x20 ADD PUSH1 0x40 MLOAD SWAP1 DUP2 ADD PUSH1 0x40 MSTORE DUP1 SWAP3 SWAP2 SWAP1 DUP2 DUP2 MSTORE PUSH1 0x20 ADD DUP3 DUP1 SLOAD PUSH2 0x124 SWAP1 PUSH2 0x2A9 JUMP JUMPDEST DUP1 ISZERO PUSH2 0x171 JUMPI DUP1 PUSH1 0x1F LT PUSH2 0x146 JUMPI PUSH2 0x100 DUP1 DUP4 SLOAD DIV MUL DUP4 MSTORE SWAP2 PUSH1 0x20 ADD SWAP2 PUSH2 0x171 JUMP JUMPDEST DUP3 ADD SWAP2 SWAP1 PUSH1 0x0 MSTORE PUSH1 0x20 PUSH1 0x0 KECCAK256 SWAP1 JUMPDEST DUP2 SLOAD DUP2 MSTORE SWAP1 PUSH1 0x1 ADD SWAP1 PUSH1 0x20 ADD DUP1 DUP4 GT PUSH2 0x154 JUMPI DUP3 SWAP1 SUB PUSH1 0x1F AND DUP3 ADD SWAP2 JUMPDEST POP POP POP POP POP SWAP1 POP DUP3 JUMP JUMPDEST PUSH1 0x0 DUP2 CALLDATALOAD SWAP1 POP PUSH2 0x18A DUP2 PUSH2 0x320 JUMP JUMPDEST SWAP3 SWAP2 POP POP JUMP JUMPDEST PUSH1 0x0 PUSH1 0x20 DUP3 DUP5 SUB SLT ISZERO PUSH2 0x1A6 JUMPI PUSH2 0x1A5 PUSH2 0x30A JUMP JUMPDEST JUMPDEST PUSH1 0x0 PUSH2 0x1B4 DUP5 DUP3 DUP6 ADD PUSH2 0x17B JUMP JUMPDEST SWAP2 POP POP SWAP3 SWAP2 POP POP JUMP JUMPDEST PUSH1 0x0 PUSH2 0x1C8 DUP3 PUSH2 0x250 JUMP JUMPDEST PUSH2 0x1D2 DUP2 DUP6 PUSH2 0x25B JUMP JUMPDEST SWAP4 POP PUSH2 0x1E2 DUP2 DUP6 PUSH1 0x20 DUP7 ADD PUSH2 0x276 JUMP JUMPDEST PUSH2 0x1EB DUP2 PUSH2 0x30F JUMP JUMPDEST DUP5 ADD SWAP2 POP POP SWAP3 SWAP2 POP POP JUMP JUMPDEST PUSH2 0x1FF DUP2 PUSH2 0x26C JUMP JUMPDEST DUP3 MSTORE POP POP JUMP JUMPDEST PUSH1 0x0 PUSH1 0x20 DUP3 ADD SWAP1 POP PUSH2 0x21A PUSH1 0x0 DUP4 ADD DUP5 PUSH2 0x1F6 JUMP JUMPDEST SWAP3 SWAP2 POP POP JUMP JUMPDEST PUSH1 0x0 PUSH1 0x40 DUP3 ADD SWAP1 POP PUSH2 0x235 PUSH1 0x0 DUP4 ADD DUP6 PUSH2 0x1F6 JUMP JUMPDEST DUP2 DUP2 SUB PUSH1 0x20 DUP4 ADD MSTORE PUSH2 0x247 DUP2 DUP5 PUSH2 0x1BD JUMP JUMPDEST SWAP1 POP SWAP4 SWAP3 POP POP POP JUMP JUMPDEST PUSH1 0x0 DUP2 MLOAD SWAP1 POP SWAP2 SWAP1 POP JUMP JUMPDEST PUSH1 0x0 DUP3 DUP3 MSTORE PUSH1 0x20 DUP3 ADD SWAP1 POP SWAP3 SWAP2 POP POP JUMP JUMPDEST PUSH1 0x0 DUP2 SWAP1 POP SWAP2 SWAP1 POP JUMP JUMPDEST PUSH1 0x0 JUMPDEST DUP4 DUP2 LT ISZERO PUSH2 0x294 JUMPI DUP1 DUP3 ADD MLOAD DUP2 DUP5 ADD MSTORE PUSH1 0x20 DUP2 ADD SWAP1 POP PUSH2 0x279 JUMP JUMPDEST DUP4 DUP2 GT ISZERO PUSH2 0x2A3 JUMPI PUSH1 0x0 DUP5 DUP5 ADD MSTORE JUMPDEST POP POP POP POP JUMP JUMPDEST PUSH1 0x0 PUSH1 0x2 DUP3 DIV SWAP1 POP PUSH1 0x1 DUP3 AND DUP1 PUSH2 0x2C1 JUMPI PUSH1 0x7F DUP3 AND SWAP2 POP JUMPDEST PUSH1 0x20 DUP3 LT DUP2 EQ ISZERO PUSH2 0x2D5 JUMPI PUSH2 0x2D4 PUSH2 0x2DB JUMP JUMPDEST JUMPDEST POP SWAP2 SWAP1 POP JUMP JUMPDEST PUSH32 0x4E487B7100000000000000000000000000000000000000000000000000000000 PUSH1 0x0 MSTORE PUSH1 0x22 PUSH1 0x4 MSTORE PUSH1 0x24 PUSH1 0x0 REVERT JUMPDEST PUSH1 0x0 DUP1 REVERT JUMPDEST PUSH1 0x0 PUSH1 0x1F NOT PUSH1 0x1F DUP4 ADD AND SWAP1 POP SWAP2 SWAP1 POP JUMP JUMPDEST PUSH2 0x329 DUP2 PUSH2 0x26C JUMP JUMPDEST DUP2 EQ PUSH2 0x334 JUMPI PUSH1 0x0 DUP1 REVERT JUMPDEST POP JUMP INVALID LOG2 PUSH5 0x6970667358 0x22 SLT KECCAK256 0xC5 LOG3 CODECOPY SUB 0xE8 0x1E PUSH18 0x1AA1F0A241928753335B8879BEBE75C990CF PUSH4 0x8662567E 0xDA CALLVALUE PUSH5 0x736F6C6343 STOP ADDMOD SMOD STOP CALLER "
				},
				"gasEstimates": {
					"creation": {
						"codeDepositCost": "175400",
						"executionCost": "infinite",
						"totalCost": "infinite"
					},
					"external": {
						"favoriteNumber()": "2429",
						"person()": "infinite",
						"retrieve()": "2415",
						"store(uint256)": "22542"
					}
				},
				"methodIdentifiers": {
					"favoriteNumber()": "471f7cdf",
					"person()": "77ec2b55",
					"retrieve()": "2e64cec1",
					"store(uint256)": "6057361d"
				}
			},
			"storageLayout": {
				"storage": [
					{
						"astId": 3,
						"contract": "contracts/SimpleStorage.sol:SimpleProject",
						"label": "favoriteNumber",
						"offset": 0,
						"slot": "0",
						"type": "t_uint256"
					},
					{
						"astId": 10,
						"contract": "contracts/SimpleStorage.sol:SimpleProject",
						"label": "person",
						"offset": 0,
						"slot": "1",
						"type": "t_struct(People)15_storage"
					}
				],
				"types": {
					"t_string_storage": {
						"encoding": "bytes",
						"label": "string",
						"numberOfBytes": "32"
					},
					"t_struct(People)15_storage": {
						"encoding": "inplace",
						"label": "struct SimpleProject.People",
						"members": [
							{
								"astId": 12,
								"contract": "contracts/SimpleStorage.sol:SimpleProject",
								"label": "favoriteNumber",
								"offset": 0,
								"slot": "0",
								"type": "t_uint256"
							},
							{
								"astId": 14,
								"contract": "contracts/SimpleStorage.sol:SimpleProject",
								"label": "name",
								"offset": 0,
								"slot": "1",
								"type": "t_string_storage"
							}
						],
						"numberOfBytes": "64"
					},
					"t_uint256": {
						"encoding": "inplace",
						"label": "uint256",
						"numberOfBytes": "32"
					}
				}
			},
			"userdoc": {
				"kind": "user",
				"methods": {},
				"version": 1
			}
		}
	}
}